{
  "transactions": [
    {
      "hash": "0x65b258c9bb79e5dc27d3b805c69f5659ea7d03450d5e38a35e00cab98a6b6768",
      "transactionType": "CALL",
      "contractName": null,
      "contractAddress": "0x224af5c393f5456e57555951e8a8f32fd27f21c2",
      "function": "removeSupportedChainId(uint64)",
      "arguments": [
        "11155111"
      ],
      "transaction": {
        "from": "0x14d7795a2566cd16eaa1419a26ddb643ce523655",
        "to": "0x224af5c393f5456e57555951e8a8f32fd27f21c2",
        "gas": "0x8862",
        "value": "0x0",
        "input": "0x08618de00000000000000000000000000000000000000000000000000000000000aa36a7",
        "nonce": "0x26",
        "chainId": "0xaa36a7"
      },
      "additionalContracts": [],
      "isFixedGasLimit": false
    },
    {
      "hash": "0x40a6ec18e713ae147cc315a29fb64722a20cd222d8cef988dd55335b092370bd",
      "transactionType": "CALL",
      "contractName": null,
      "contractAddress": "0x224af5c393f5456e57555951e8a8f32fd27f21c2",
      "function": "addSupportedChainId(uint64,address)",
      "arguments": [
        "11155111",
        "0xD63dcF5091d3776D01d727b92d195cF54c10F0d2"
      ],
      "transaction": {
        "from": "0x14d7795a2566cd16eaa1419a26ddb643ce523655",
        "to": "0x224af5c393f5456e57555951e8a8f32fd27f21c2",
        "gas": "0x10c1a",
        "value": "0x0",
        "input": "0xf8d7e75a0000000000000000000000000000000000000000000000000000000000aa36a7000000000000000000000000d63dcf5091d3776d01d727b92d195cf54c10f0d2",
        "nonce": "0x27",
        "chainId": "0xaa36a7"
      },
      "additionalContracts": [],
      "isFixedGasLimit": false
    },
    {
      "hash": "0x6885c8540be484db7b62220d178322c91241accb1b5fd858d75c6dd38a61740a",
      "transactionType": "CALL",
      "contractName": null,
      "contractAddress": "0x224af5c393f5456e57555951e8a8f32fd27f21c2",
      "function": "addProtocol(uint64,string,address)",
      "arguments": [
        "11155111",
        "TestAdapter",
        "0x3cfc9AA161e825F2878Fa8B46AaC72Ae32673FfA"
      ],
      "transaction": {
        "from": "0x14d7795a2566cd16eaa1419a26ddb643ce523655",
        "to": "0x224af5c393f5456e57555951e8a8f32fd27f21c2",
        "gas": "0x1a277",
        "value": "0x0",
        "input": "0xd27326190000000000000000000000000000000000000000000000000000000000aa36a700000000000000000000000000000000000000000000000000000000000000600000000000000000000000003cfc9aa161e825f2878fa8b46aac72ae32673ffa000000000000000000000000000000000000000000000000000000000000000b5465737441646170746572000000000000000000000000000000000000000000",
        "nonce": "0x28",
        "chainId": "0xaa36a7"
      },
      "additionalContracts": [],
      "isFixedGasLimit": false
    },
    {
      "hash": "0xcff6e69c52623bf799cfc5aa3346f3e79f9482d94df67694ce3b772e60f07a7b",
      "transactionType": "CALL",
      "contractName": null,
      "contractAddress": "0x224af5c393f5456e57555951e8a8f32fd27f21c2",
      "function": "removeSupportedChainId(uint64)",
      "arguments": [
        "43113"
      ],
      "transaction": {
        "from": "0x14d7795a2566cd16eaa1419a26ddb643ce523655",
        "to": "0x224af5c393f5456e57555951e8a8f32fd27f21c2",
        "gas": "0x80bd",
        "value": "0x0",
        "input": "0x08618de0000000000000000000000000000000000000000000000000000000000000a869",
        "nonce": "0x29",
        "chainId": "0xaa36a7"
      },
      "additionalContracts": [],
      "isFixedGasLimit": false
    },
    {
      "hash": "0xcda4c6f86319d006f799581911745dc35e640dec29e1c8d50b3729ac69ac9df7",
      "transactionType": "CALL",
      "contractName": null,
      "contractAddress": "0x224af5c393f5456e57555951e8a8f32fd27f21c2",
      "function": "addSupportedChainId(uint64,address)",
      "arguments": [
        "43113",
        "0x303425F16FDD5a2B56357C79CD2ae6e84B740b9B"
      ],
      "transaction": {
        "from": "0x14d7795a2566cd16eaa1419a26ddb643ce523655",
        "to": "0x224af5c393f5456e57555951e8a8f32fd27f21c2",
        "gas": "0xfd25",
        "value": "0x0",
        "input": "0xf8d7e75a000000000000000000000000000000000000000000000000000000000000a869000000000000000000000000303425f16fdd5a2b56357c79cd2ae6e84b740b9b",
        "nonce": "0x2a",
        "chainId": "0xaa36a7"
      },
      "additionalContracts": [],
      "isFixedGasLimit": false
    },
    {
      "hash": "0x7de1ef0d13febba60d188cf3e54ddcceff7d897a1984849e923b5b423f202c50",
      "transactionType": "CALL",
      "contractName": null,
      "contractAddress": "0x224af5c393f5456e57555951e8a8f32fd27f21c2",
      "function": "addProtocol(uint64,string,address)",
      "arguments": [
        "43113",
        "TestAdapter",
        "0x3cfc9AA161e825F2878Fa8B46AaC72Ae32673FfA"
      ],
      "transaction": {
        "from": "0x14d7795a2566cd16eaa1419a26ddb643ce523655",
        "to": "0x224af5c393f5456e57555951e8a8f32fd27f21c2",
        "gas": "0x1bb04",
        "value": "0x0",
        "input": "0xd2732619000000000000000000000000000000000000000000000000000000000000a86900000000000000000000000000000000000000000000000000000000000000600000000000000000000000003cfc9aa161e825f2878fa8b46aac72ae32673ffa000000000000000000000000000000000000000000000000000000000000000b5465737441646170746572000000000000000000000000000000000000000000",
        "nonce": "0x2b",
        "chainId": "0xaa36a7"
      },
      "additionalContracts": [],
      "isFixedGasLimit": false
    }
  ],
  "receipts": [
    {
      "status": "0x1",
      "cumulativeGasUsed": "0xc1b0c3",
      "logs": [],
      "logsBloom": "0x00000000000000000000000000000000000000000000000000000000000000000000000000000000000000000000000000000000000000000000000000000000000000000000000000000000000000000000000000000000000000000000000000000000000000000000000000000000000000000000000000000000000000000000000000000000000000000000000000000000000000000000000000000000000000000000000000000000000000000000000000000000000000000000000000000000000000000000000000000000000000000000000000000000000000000000000000000000000000000000000000000000000000000000000000000000",
      "type": "0x2",
      "transactionHash": "0x65b258c9bb79e5dc27d3b805c69f5659ea7d03450d5e38a35e00cab98a6b6768",
      "transactionIndex": "0x61",
      "blockHash": "0x6b967a11b91689348c9faf09c3736fa5ab1e557c30e47fd82298aad48181e293",
      "blockNumber": "0x837adb",
      "gasUsed": "0x5d41",
      "effectiveGasPrice": "0x138861",
      "from": "0x14d7795a2566cd16eaa1419a26ddb643ce523655",
      "to": "0x224af5c393f5456e57555951e8a8f32fd27f21c2",
      "contractAddress": null
    },
    {
      "status": "0x1",
      "cumulativeGasUsed": "0xc26815",
      "logs": [],
      "logsBloom": "0x00000000000000000000000000000000000000000000000000000000000000000000000000000000000000000000000000000000000000000000000000000000000000000000000000000000000000000000000000000000000000000000000000000000000000000000000000000000000000000000000000000000000000000000000000000000000000000000000000000000000000000000000000000000000000000000000000000000000000000000000000000000000000000000000000000000000000000000000000000000000000000000000000000000000000000000000000000000000000000000000000000000000000000000000000000000",
      "type": "0x2",
      "transactionHash": "0x40a6ec18e713ae147cc315a29fb64722a20cd222d8cef988dd55335b092370bd",
      "transactionIndex": "0x62",
      "blockHash": "0x6b967a11b91689348c9faf09c3736fa5ab1e557c30e47fd82298aad48181e293",
      "blockNumber": "0x837adb",
      "gasUsed": "0xb752",
      "effectiveGasPrice": "0x138861",
      "from": "0x14d7795a2566cd16eaa1419a26ddb643ce523655",
      "to": "0x224af5c393f5456e57555951e8a8f32fd27f21c2",
      "contractAddress": null
    },
    {
      "status": "0x1",
      "cumulativeGasUsed": "0xc3970c",
      "logs": [],
      "logsBloom": "0x00000000000000000000000000000000000000000000000000000000000000000000000000000000000000000000000000000000000000000000000000000000000000000000000000000000000000000000000000000000000000000000000000000000000000000000000000000000000000000000000000000000000000000000000000000000000000000000000000000000000000000000000000000000000000000000000000000000000000000000000000000000000000000000000000000000000000000000000000000000000000000000000000000000000000000000000000000000000000000000000000000000000000000000000000000000",
      "type": "0x2",
      "transactionHash": "0x6885c8540be484db7b62220d178322c91241accb1b5fd858d75c6dd38a61740a",
      "transactionIndex": "0x63",
      "blockHash": "0x6b967a11b91689348c9faf09c3736fa5ab1e557c30e47fd82298aad48181e293",
      "blockNumber": "0x837adb",
      "gasUsed": "0x12ef7",
      "effectiveGasPrice": "0x138861",
      "from": "0x14d7795a2566cd16eaa1419a26ddb643ce523655",
      "to": "0x224af5c393f5456e57555951e8a8f32fd27f21c2",
      "contractAddress": null
    },
    {
      "status": "0x1",
      "cumulativeGasUsed": "0xc3f441",
      "logs": [],
      "logsBloom": "0x00000000000000000000000000000000000000000000000000000000000000000000000000000000000000000000000000000000000000000000000000000000000000000000000000000000000000000000000000000000000000000000000000000000000000000000000000000000000000000000000000000000000000000000000000000000000000000000000000000000000000000000000000000000000000000000000000000000000000000000000000000000000000000000000000000000000000000000000000000000000000000000000000000000000000000000000000000000000000000000000000000000000000000000000000000000",
      "type": "0x2",
      "transactionHash": "0xcff6e69c52623bf799cfc5aa3346f3e79f9482d94df67694ce3b772e60f07a7b",
      "transactionIndex": "0x64",
      "blockHash": "0x6b967a11b91689348c9faf09c3736fa5ab1e557c30e47fd82298aad48181e293",
      "blockNumber": "0x837adb",
      "gasUsed": "0x5d35",
      "effectiveGasPrice": "0x138861",
      "from": "0x14d7795a2566cd16eaa1419a26ddb643ce523655",
      "to": "0x224af5c393f5456e57555951e8a8f32fd27f21c2",
      "contractAddress": null
    },
    {
      "status": "0x1",
      "cumulativeGasUsed": "0xc5ee43",
      "logs": [],
      "logsBloom": "0x00000000000000000000000000000000000000000000000000000000000000000000000000000000000000000000000000000000000000000000000000000000000000000000000000000000000000000000000000000000000000000000000000000000000000000000000000000000000000000000000000000000000000000000000000000000000000000000000000000000000000000000000000000000000000000000000000000000000000000000000000000000000000000000000000000000000000000000000000000000000000000000000000000000000000000000000000000000000000000000000000000000000000000000000000000000",
      "type": "0x2",
      "transactionHash": "0xcda4c6f86319d006f799581911745dc35e640dec29e1c8d50b3729ac69ac9df7",
      "transactionIndex": "0x66",
      "blockHash": "0x6b967a11b91689348c9faf09c3736fa5ab1e557c30e47fd82298aad48181e293",
      "blockNumber": "0x837adb",
      "gasUsed": "0xb746",
      "effectiveGasPrice": "0x138861",
      "from": "0x14d7795a2566cd16eaa1419a26ddb643ce523655",
      "to": "0x224af5c393f5456e57555951e8a8f32fd27f21c2",
      "contractAddress": null
    },
    {
      "status": "0x1",
      "cumulativeGasUsed": "0xc71d2e",
      "logs": [],
      "logsBloom": "0x00000000000000000000000000000000000000000000000000000000000000000000000000000000000000000000000000000000000000000000000000000000000000000000000000000000000000000000000000000000000000000000000000000000000000000000000000000000000000000000000000000000000000000000000000000000000000000000000000000000000000000000000000000000000000000000000000000000000000000000000000000000000000000000000000000000000000000000000000000000000000000000000000000000000000000000000000000000000000000000000000000000000000000000000000000000",
      "type": "0x2",
      "transactionHash": "0x7de1ef0d13febba60d188cf3e54ddcceff7d897a1984849e923b5b423f202c50",
      "transactionIndex": "0x67",
      "blockHash": "0x6b967a11b91689348c9faf09c3736fa5ab1e557c30e47fd82298aad48181e293",
      "blockNumber": "0x837adb",
      "gasUsed": "0x12eeb",
      "effectiveGasPrice": "0x138861",
      "from": "0x14d7795a2566cd16eaa1419a26ddb643ce523655",
      "to": "0x224af5c393f5456e57555951e8a8f32fd27f21c2",
      "contractAddress": null
    }
  ],
  "libraries": [],
  "pending": [],
  "returns": {},
  "timestamp": 1750742916,
  "chain": 11155111,
  "commit": "8b00971"
}