{
  "transactions": [
    {
      "hash": "0xb49608460c5972821cf01db9dffcc7488d0939de71b1c42d5dff282c0ceed247",
      "transactionType": "CALL",
      "contractName": null,
      "contractAddress": "0x224af5c393f5456e57555951e8a8f32fd27f21c2",
      "function": "removeSupportedChainId(uint64)",
      "arguments": [
        "11155111"
      ],
      "transaction": {
        "from": "0x14d7795a2566cd16eaa1419a26ddb643ce523655",
        "to": "0x224af5c393f5456e57555951e8a8f32fd27f21c2",
        "gas": "0x8862",
        "value": "0x0",
        "input": "0x08618de00000000000000000000000000000000000000000000000000000000000aa36a7",
        "nonce": "0x32",
        "chainId": "0xaa36a7"
      },
      "additionalContracts": [],
      "isFixedGasLimit": false
    },
    {
      "hash": "0xeeb8b92b821dc03e92fc9dbb9aa483730b82d99a0d2ee993ed8c4f4edf2bcfd8",
      "transactionType": "CALL",
      "contractName": null,
      "contractAddress": "0x224af5c393f5456e57555951e8a8f32fd27f21c2",
      "function": "addSupportedChainId(uint64,address)",
      "arguments": [
        "11155111",
        "0xD63dcF5091d3776D01d727b92d195cF54c10F0d2"
      ],
      "transaction": {
        "from": "0x14d7795a2566cd16eaa1419a26ddb643ce523655",
        "to": "0x224af5c393f5456e57555951e8a8f32fd27f21c2",
        "gas": "0x10c1a",
        "value": "0x0",
        "input": "0xf8d7e75a0000000000000000000000000000000000000000000000000000000000aa36a7000000000000000000000000d63dcf5091d3776d01d727b92d195cf54c10f0d2",
        "nonce": "0x33",
        "chainId": "0xaa36a7"
      },
      "additionalContracts": [],
      "isFixedGasLimit": false
    },
    {
      "hash": "0x2765c9b0bb621d7bcd10cdb79e8fd3015f98c576fa8471772f9392b0b87213ac",
      "transactionType": "CALL",
      "contractName": null,
      "contractAddress": "0x224af5c393f5456e57555951e8a8f32fd27f21c2",
      "function": "addProtocol(uint64,string,address)",
      "arguments": [
        "11155111",
        "TestAdapter",
        "0x3cfc9AA161e825F2878Fa8B46AaC72Ae32673FfA"
      ],
      "transaction": {
        "from": "0x14d7795a2566cd16eaa1419a26ddb643ce523655",
        "to": "0x224af5c393f5456e57555951e8a8f32fd27f21c2",
        "gas": "0x1a277",
        "value": "0x0",
        "input": "0xd27326190000000000000000000000000000000000000000000000000000000000aa36a700000000000000000000000000000000000000000000000000000000000000600000000000000000000000003cfc9aa161e825f2878fa8b46aac72ae32673ffa000000000000000000000000000000000000000000000000000000000000000b5465737441646170746572000000000000000000000000000000000000000000",
        "nonce": "0x34",
        "chainId": "0xaa36a7"
      },
      "additionalContracts": [],
      "isFixedGasLimit": false
    },
    {
      "hash": "0x61c796352631d0ec49e21665aa1e31e4e6b4175caf4d3bd5b49d40c5d957c177",
      "transactionType": "CALL",
      "contractName": null,
      "contractAddress": "0x224af5c393f5456e57555951e8a8f32fd27f21c2",
      "function": "removeSupportedChainId(uint64)",
      "arguments": [
        "43113"
      ],
      "transaction": {
        "from": "0x14d7795a2566cd16eaa1419a26ddb643ce523655",
        "to": "0x224af5c393f5456e57555951e8a8f32fd27f21c2",
        "gas": "0x80bd",
        "value": "0x0",
        "input": "0x08618de0000000000000000000000000000000000000000000000000000000000000a869",
        "nonce": "0x35",
        "chainId": "0xaa36a7"
      },
      "additionalContracts": [],
      "isFixedGasLimit": false
    },
    {
      "hash": "0x6dfe27e6e2c5ab0eb1c44d041bea27f59b1e9af15133cbccd93ea476bdee6f23",
      "transactionType": "CALL",
      "contractName": null,
      "contractAddress": "0x224af5c393f5456e57555951e8a8f32fd27f21c2",
      "function": "addSupportedChainId(uint64,address)",
      "arguments": [
        "43113",
        "0xf3CB920B86F329b88C87d39f975a5f12cd013a19"
      ],
      "transaction": {
        "from": "0x14d7795a2566cd16eaa1419a26ddb643ce523655",
        "to": "0x224af5c393f5456e57555951e8a8f32fd27f21c2",
        "gas": "0xfd25",
        "value": "0x0",
        "input": "0xf8d7e75a000000000000000000000000000000000000000000000000000000000000a869000000000000000000000000f3cb920b86f329b88c87d39f975a5f12cd013a19",
        "nonce": "0x36",
        "chainId": "0xaa36a7"
      },
      "additionalContracts": [],
      "isFixedGasLimit": false
    },
    {
      "hash": "0x4434ba9cae0c175a5efd8e9fa91e8ba585a630d706200168496015be6c1d9dae",
      "transactionType": "CALL",
      "contractName": null,
      "contractAddress": "0x224af5c393f5456e57555951e8a8f32fd27f21c2",
      "function": "addProtocol(uint64,string,address)",
      "arguments": [
        "43113",
        "TestAdapter",
        "0x3cfc9AA161e825F2878Fa8B46AaC72Ae32673FfA"
      ],
      "transaction": {
        "from": "0x14d7795a2566cd16eaa1419a26ddb643ce523655",
        "to": "0x224af5c393f5456e57555951e8a8f32fd27f21c2",
        "gas": "0x1bb04",
        "value": "0x0",
        "input": "0xd2732619000000000000000000000000000000000000000000000000000000000000a86900000000000000000000000000000000000000000000000000000000000000600000000000000000000000003cfc9aa161e825f2878fa8b46aac72ae32673ffa000000000000000000000000000000000000000000000000000000000000000b5465737441646170746572000000000000000000000000000000000000000000",
        "nonce": "0x37",
        "chainId": "0xaa36a7"
      },
      "additionalContracts": [],
      "isFixedGasLimit": false
    }
  ],
  "receipts": [
    {
      "status": "0x1",
      "cumulativeGasUsed": "0x16dfd9c",
      "logs": [],
      "logsBloom": "0x00000000000000000000000000000000000000000000000000000000000000000000000000000000000000000000000000000000000000000000000000000000000000000000000000000000000000000000000000000000000000000000000000000000000000000000000000000000000000000000000000000000000000000000000000000000000000000000000000000000000000000000000000000000000000000000000000000000000000000000000000000000000000000000000000000000000000000000000000000000000000000000000000000000000000000000000000000000000000000000000000000000000000000000000000000000",
      "type": "0x2",
      "transactionHash": "0xb49608460c5972821cf01db9dffcc7488d0939de71b1c42d5dff282c0ceed247",
      "transactionIndex": "0xa1",
      "blockHash": "0xa3f64d346d6087da4b37161dacfcc30c15bc2f2d58f4ca9f8c447d78116635fd",
      "blockNumber": "0x837b15",
      "gasUsed": "0x5d41",
      "effectiveGasPrice": "0x14cbde",
      "from": "0x14d7795a2566cd16eaa1419a26ddb643ce523655",
      "to": "0x224af5c393f5456e57555951e8a8f32fd27f21c2",
      "contractAddress": null
    },
    {
      "status": "0x1",
      "cumulativeGasUsed": "0x18f8f39",
      "logs": [],
      "logsBloom": "0x00000000000000000000000000000000000000000000000000000000000000000000000000000000000000000000000000000000000000000000000000000000000000000000000000000000000000000000000000000000000000000000000000000000000000000000000000000000000000000000000000000000000000000000000000000000000000000000000000000000000000000000000000000000000000000000000000000000000000000000000000000000000000000000000000000000000000000000000000000000000000000000000000000000000000000000000000000000000000000000000000000000000000000000000000000000",
      "type": "0x2",
      "transactionHash": "0xeeb8b92b821dc03e92fc9dbb9aa483730b82d99a0d2ee993ed8c4f4edf2bcfd8",
      "transactionIndex": "0x64",
      "blockHash": "0xdc9bd6033b2763eed48b4a1599ef8b4cbe21c4e3a8ebddc2ac283f5b04d0ac85",
      "blockNumber": "0x837b18",
      "gasUsed": "0xb752",
      "effectiveGasPrice": "0x159465",
      "from": "0x14d7795a2566cd16eaa1419a26ddb643ce523655",
      "to": "0x224af5c393f5456e57555951e8a8f32fd27f21c2",
      "contractAddress": null
    },
    {
      "status": "0x1",
      "cumulativeGasUsed": "0x190be30",
      "logs": [],
      "logsBloom": "0x00000000000000000000000000000000000000000000000000000000000000000000000000000000000000000000000000000000000000000000000000000000000000000000000000000000000000000000000000000000000000000000000000000000000000000000000000000000000000000000000000000000000000000000000000000000000000000000000000000000000000000000000000000000000000000000000000000000000000000000000000000000000000000000000000000000000000000000000000000000000000000000000000000000000000000000000000000000000000000000000000000000000000000000000000000000",
      "type": "0x2",
      "transactionHash": "0x2765c9b0bb621d7bcd10cdb79e8fd3015f98c576fa8471772f9392b0b87213ac",
      "transactionIndex": "0x65",
      "blockHash": "0xdc9bd6033b2763eed48b4a1599ef8b4cbe21c4e3a8ebddc2ac283f5b04d0ac85",
      "blockNumber": "0x837b18",
      "gasUsed": "0x12ef7",
      "effectiveGasPrice": "0x159465",
      "from": "0x14d7795a2566cd16eaa1419a26ddb643ce523655",
      "to": "0x224af5c393f5456e57555951e8a8f32fd27f21c2",
      "contractAddress": null
    },
    {
      "status": "0x1",
      "cumulativeGasUsed": "0x1911b65",
      "logs": [],
      "logsBloom": "0x00000000000000000000000000000000000000000000000000000000000000000000000000000000000000000000000000000000000000000000000000000000000000000000000000000000000000000000000000000000000000000000000000000000000000000000000000000000000000000000000000000000000000000000000000000000000000000000000000000000000000000000000000000000000000000000000000000000000000000000000000000000000000000000000000000000000000000000000000000000000000000000000000000000000000000000000000000000000000000000000000000000000000000000000000000000",
      "type": "0x2",
      "transactionHash": "0x61c796352631d0ec49e21665aa1e31e4e6b4175caf4d3bd5b49d40c5d957c177",
      "transactionIndex": "0x66",
      "blockHash": "0xdc9bd6033b2763eed48b4a1599ef8b4cbe21c4e3a8ebddc2ac283f5b04d0ac85",
      "blockNumber": "0x837b18",
      "gasUsed": "0x5d35",
      "effectiveGasPrice": "0x159465",
      "from": "0x14d7795a2566cd16eaa1419a26ddb643ce523655",
      "to": "0x224af5c393f5456e57555951e8a8f32fd27f21c2",
      "contractAddress": null
    },
    {
      "status": "0x1",
      "cumulativeGasUsed": "0x1a0e599",
      "logs": [],
      "logsBloom": "0x00000000000000000000000000000000000000000000000000000000000000000000000000000000000000000000000000000000000000000000000000000000000000000000000000000000000000000000000000000000000000000000000000000000000000000000000000000000000000000000000000000000000000000000000000000000000000000000000000000000000000000000000000000000000000000000000000000000000000000000000000000000000000000000000000000000000000000000000000000000000000000000000000000000000000000000000000000000000000000000000000000000000000000000000000000000",
      "type": "0x2",
      "transactionHash": "0x6dfe27e6e2c5ab0eb1c44d041bea27f59b1e9af15133cbccd93ea476bdee6f23",
      "transactionIndex": "0x6e",
      "blockHash": "0xa00aadb40f04df35a25ba07256d6b3de48c9d4fd1e0454181f0eebd8c0361764",
      "blockNumber": "0x837b19",
      "gasUsed": "0xb746",
      "effectiveGasPrice": "0x15b5b4",
      "from": "0x14d7795a2566cd16eaa1419a26ddb643ce523655",
      "to": "0x224af5c393f5456e57555951e8a8f32fd27f21c2",
      "contractAddress": null
    },
    {
      "status": "0x1",
      "cumulativeGasUsed": "0x1a21484",
      "logs": [],
      "logsBloom": "0x00000000000000000000000000000000000000000000000000000000000000000000000000000000000000000000000000000000000000000000000000000000000000000000000000000000000000000000000000000000000000000000000000000000000000000000000000000000000000000000000000000000000000000000000000000000000000000000000000000000000000000000000000000000000000000000000000000000000000000000000000000000000000000000000000000000000000000000000000000000000000000000000000000000000000000000000000000000000000000000000000000000000000000000000000000000",
      "type": "0x2",
      "transactionHash": "0x4434ba9cae0c175a5efd8e9fa91e8ba585a630d706200168496015be6c1d9dae",
      "transactionIndex": "0x6f",
      "blockHash": "0xa00aadb40f04df35a25ba07256d6b3de48c9d4fd1e0454181f0eebd8c0361764",
      "blockNumber": "0x837b19",
      "gasUsed": "0x12eeb",
      "effectiveGasPrice": "0x15b5b4",
      "from": "0x14d7795a2566cd16eaa1419a26ddb643ce523655",
      "to": "0x224af5c393f5456e57555951e8a8f32fd27f21c2",
      "contractAddress": null
    }
  ],
  "libraries": [],
  "pending": [],
  "returns": {},
  "timestamp": 1750743662,
  "chain": 11155111,
  "commit": "8b00971"
}