{
  "transactions": [
    {
      "hash": "0x71750cccb083b60f82bd3f9cd4cadd91553bd1f156f3bfed8bf2d9b746ae46e4",
      "transactionType": "CALL",
      "contractName": null,
      "contractAddress": "0x224af5c393f5456e57555951e8a8f32fd27f21c2",
      "function": "removeSupportedChainId(uint64)",
      "arguments": [
        "11155111"
      ],
      "transaction": {
        "from": "0x14d7795a2566cd16eaa1419a26ddb643ce523655",
        "to": "0x224af5c393f5456e57555951e8a8f32fd27f21c2",
        "gas": "0x8862",
        "value": "0x0",
        "input": "0x08618de00000000000000000000000000000000000000000000000000000000000aa36a7",
        "nonce": "0x1d",
        "chainId": "0xaa36a7"
      },
      "additionalContracts": [],
      "isFixedGasLimit": false
    },
    {
      "hash": "0x01793b95f3e97153d89e3816b3598009ff778f9ec8a46a88ee3dc4349770c183",
      "transactionType": "CALL",
      "contractName": null,
      "contractAddress": "0x224af5c393f5456e57555951e8a8f32fd27f21c2",
      "function": "addSupportedChainId(uint64,address)",
      "arguments": [
        "11155111",
        "0xD63dcF5091d3776D01d727b92d195cF54c10F0d2"
      ],
      "transaction": {
        "from": "0x14d7795a2566cd16eaa1419a26ddb643ce523655",
        "to": "0x224af5c393f5456e57555951e8a8f32fd27f21c2",
        "gas": "0x10c1a",
        "value": "0x0",
        "input": "0xf8d7e75a0000000000000000000000000000000000000000000000000000000000aa36a7000000000000000000000000d63dcf5091d3776d01d727b92d195cf54c10f0d2",
        "nonce": "0x1e",
        "chainId": "0xaa36a7"
      },
      "additionalContracts": [],
      "isFixedGasLimit": false
    },
    {
      "hash": "0xc728a57a5d3923a07e19181413a2e51d3e3d4f89b81336d5a44a73dfe84310e7",
      "transactionType": "CALL",
      "contractName": null,
      "contractAddress": "0x224af5c393f5456e57555951e8a8f32fd27f21c2",
      "function": "addProtocol(uint64,string,address)",
      "arguments": [
        "11155111",
        "TestAdapter",
        "0x3cfc9AA161e825F2878Fa8B46AaC72Ae32673FfA"
      ],
      "transaction": {
        "from": "0x14d7795a2566cd16eaa1419a26ddb643ce523655",
        "to": "0x224af5c393f5456e57555951e8a8f32fd27f21c2",
        "gas": "0x1a277",
        "value": "0x0",
        "input": "0xd27326190000000000000000000000000000000000000000000000000000000000aa36a700000000000000000000000000000000000000000000000000000000000000600000000000000000000000003cfc9aa161e825f2878fa8b46aac72ae32673ffa000000000000000000000000000000000000000000000000000000000000000b5465737441646170746572000000000000000000000000000000000000000000",
        "nonce": "0x1f",
        "chainId": "0xaa36a7"
      },
      "additionalContracts": [],
      "isFixedGasLimit": false
    }
  ],
  "receipts": [
    {
      "status": "0x1",
      "cumulativeGasUsed": "0x1d01a94",
      "logs": [],
      "logsBloom": "0x00000000000000000000000000000000000000000000000000000000000000000000000000000000000000000000000000000000000000000000000000000000000000000000000000000000000000000000000000000000000000000000000000000000000000000000000000000000000000000000000000000000000000000000000000000000000000000000000000000000000000000000000000000000000000000000000000000000000000000000000000000000000000000000000000000000000000000000000000000000000000000000000000000000000000000000000000000000000000000000000000000000000000000000000000000000",
      "type": "0x2",
      "transactionHash": "0x71750cccb083b60f82bd3f9cd4cadd91553bd1f156f3bfed8bf2d9b746ae46e4",
      "transactionIndex": "0x85",
      "blockHash": "0x54bb2cc43fee00b886acf40cd65f9b81632ac7e0d1ed395e984461aba82fe1ce",
      "blockNumber": "0x837ab6",
      "gasUsed": "0x5d41",
      "effectiveGasPrice": "0x13161a",
      "from": "0x14d7795a2566cd16eaa1419a26ddb643ce523655",
      "to": "0x224af5c393f5456e57555951e8a8f32fd27f21c2",
      "contractAddress": null
    },
    {
      "status": "0x1",
      "cumulativeGasUsed": "0x1d0d1e6",
      "logs": [],
      "logsBloom": "0x00000000000000000000000000000000000000000000000000000000000000000000000000000000000000000000000000000000000000000000000000000000000000000000000000000000000000000000000000000000000000000000000000000000000000000000000000000000000000000000000000000000000000000000000000000000000000000000000000000000000000000000000000000000000000000000000000000000000000000000000000000000000000000000000000000000000000000000000000000000000000000000000000000000000000000000000000000000000000000000000000000000000000000000000000000000",
      "type": "0x2",
      "transactionHash": "0x01793b95f3e97153d89e3816b3598009ff778f9ec8a46a88ee3dc4349770c183",
      "transactionIndex": "0x86",
      "blockHash": "0x54bb2cc43fee00b886acf40cd65f9b81632ac7e0d1ed395e984461aba82fe1ce",
      "blockNumber": "0x837ab6",
      "gasUsed": "0xb752",
      "effectiveGasPrice": "0x13161a",
      "from": "0x14d7795a2566cd16eaa1419a26ddb643ce523655",
      "to": "0x224af5c393f5456e57555951e8a8f32fd27f21c2",
      "contractAddress": null
    },
    {
      "status": "0x1",
      "cumulativeGasUsed": "0x1d200dd",
      "logs": [],
      "logsBloom": "0x00000000000000000000000000000000000000000000000000000000000000000000000000000000000000000000000000000000000000000000000000000000000000000000000000000000000000000000000000000000000000000000000000000000000000000000000000000000000000000000000000000000000000000000000000000000000000000000000000000000000000000000000000000000000000000000000000000000000000000000000000000000000000000000000000000000000000000000000000000000000000000000000000000000000000000000000000000000000000000000000000000000000000000000000000000000",
      "type": "0x2",
      "transactionHash": "0xc728a57a5d3923a07e19181413a2e51d3e3d4f89b81336d5a44a73dfe84310e7",
      "transactionIndex": "0x87",
      "blockHash": "0x54bb2cc43fee00b886acf40cd65f9b81632ac7e0d1ed395e984461aba82fe1ce",
      "blockNumber": "0x837ab6",
      "gasUsed": "0x12ef7",
      "effectiveGasPrice": "0x13161a",
      "from": "0x14d7795a2566cd16eaa1419a26ddb643ce523655",
      "to": "0x224af5c393f5456e57555951e8a8f32fd27f21c2",
      "contractAddress": null
    }
  ],
  "libraries": [],
  "pending": [],
  "returns": {},
  "timestamp": 1750742473,
  "chain": 11155111,
  "commit": "8b00971"
}