{
  "transactions": [
    {
      "hash": "0x05bf5a4bdc28f48a888ce94a3c74dd1fb2a846998395e7494751a3e11993826d",
      "transactionType": "CALL",
      "contractName": null,
      "contractAddress": "0x436b630550186555865f969b89803a76d18fab2b",
      "function": "registerStrategy((uint256,uint8,uint256,(uint64,uint256,(address,uint256)[])[]),uint256)",
      "arguments": [
        "(3, 0, 0, [(12532609583862916517, 0, [(0xB361aB7b925c8F094F16407702d6fD275534d981, 100)])])",
        "3"
      ],
      "transaction": {
        "from": "0x14d7795a2566cd16eaa1419a26ddb643ce523655",
        "to": "0x436b630550186555865f969b89803a76d18fab2b",
        "gas": "0x67f18",
        "value": "0x0",
        "input": "0x8d450b1c00000000000000000000000000000000000000000000000000000000000000400000000000000000000000000000000000000000000000000000000000000003000000000000000000000000000000000000000000000000000000000000000300000000000000000000000000000000000000000000000000000000000000000000000000000000000000000000000000000000000000000000000000000000000000000000000000000000000000000000000000000000000000000000008000000000000000000000000000000000000000000000000000000000000000010000000000000000000000000000000000000000000000000000000000000020000000000000000000000000000000000000000000000000adecc60412ce25a5000000000000000000000000000000000000000000000000000000000000000000000000000000000000000000000000000000000000000000000000000000600000000000000000000000000000000000000000000000000000000000000001000000000000000000000000b361ab7b925c8f094f16407702d6fd275534d9810000000000000000000000000000000000000000000000000000000000000064",
        "nonce": "0xac",
        "chainId": "0xaa36a7"
      },
      "additionalContracts": [],
      "isFixedGasLimit": false
    }
  ],
  "receipts": [
    {
      "status": "0x1",
      "cumulativeGasUsed": "0x951e2b",
      "logs": [
        {
          "address": "0x436b630550186555865f969b89803a76d18fab2b",
          "topics": [
            "0xf6c58d702978645ce3b9b7448f83dc6e5b3484a4e0ef39633435730d73264ec1",
            "0x00000000000000000000000014d7795a2566cd16eaa1419a26ddb643ce523655"
          ],
          "data": "0x00000000000000000000000000000000000000000000000000000000009896800000000000000000000000000000000000000000000000000000000000000003",
          "blockHash": "0xc49dedd21a579451fa5a48b58659758a1b07974503d7e09cd58a4f9b180b671d",
          "blockNumber": "0x83e390",
          "transactionHash": "0x05bf5a4bdc28f48a888ce94a3c74dd1fb2a846998395e7494751a3e11993826d",
          "transactionIndex": "0x5c",
          "logIndex": "0x6f",
          "removed": false
        }
      ],
      "logsBloom": "0x00000080000000000000000000000000000000000000000000000000000000000000000000000000000000000000000000000000000000000000000000000000000000000000000000000000000000000040000000000000000000000000000400000000000000000000000000000000000000004000000000000000000000000000000000000000000000000000000000000100000000000000000000000000000000000000000000000000000100080000000000000000000000020000000000000000000000000000000000000000000000000000000000000000000000000000000000000001000000000000000000000000000000000000000000000000",
      "type": "0x2",
      "transactionHash": "0x05bf5a4bdc28f48a888ce94a3c74dd1fb2a846998395e7494751a3e11993826d",
      "transactionIndex": "0x5c",
      "blockHash": "0xc49dedd21a579451fa5a48b58659758a1b07974503d7e09cd58a4f9b180b671d",
      "blockNumber": "0x83e390",
      "gasUsed": "0x47129",
      "effectiveGasPrice": "0xf424f",
      "from": "0x14d7795a2566cd16eaa1419a26ddb643ce523655",
      "to": "0x436b630550186555865f969b89803a76d18fab2b",
      "contractAddress": null
    }
  ],
  "libraries": [],
  "pending": [],
  "returns": {},
  "timestamp": 1751066760,
  "chain": 11155111,
  "commit": "2ffbf59"
}