{
  "transactions": [
    {
      "hash": "0xf57f0907134de836ec243b3baeb50bcc74a5c880b08382ac9e949ec9a422d420",
      "transactionType": "CALL",
      "contractName": null,
      "contractAddress": "0x436b630550186555865f969b89803a76d18fab2b",
      "function": "addSupportedChainId(uint64,address)",
      "arguments": [
        "12532609583862916517",
        "0xF6D757241B1BBf59e9fB0e194E115c9F1665A8C7"
      ],
      "transaction": {
        "from": "0x14d7795a2566cd16eaa1419a26ddb643ce523655",
        "to": "0x436b630550186555865f969b89803a76d18fab2b",
        "gas": "0xfe02",
        "value": "0x0",
        "input": "0xf8d7e75a000000000000000000000000000000000000000000000000adecc60412ce25a5000000000000000000000000f6d757241b1bbf59e9fb0e194e115c9f1665a8c7",
        "nonce": "0xaa",
        "chainId": "0xaa36a7"
      },
      "additionalContracts": [],
      "isFixedGasLimit": false
    }
  ],
  "receipts": [
    {
      "status": "0x1",
      "cumulativeGasUsed": "0xb0d1e3",
      "logs": [],
      "logsBloom": "0x00000000000000000000000000000000000000000000000000000000000000000000000000000000000000000000000000000000000000000000000000000000000000000000000000000000000000000000000000000000000000000000000000000000000000000000000000000000000000000000000000000000000000000000000000000000000000000000000000000000000000000000000000000000000000000000000000000000000000000000000000000000000000000000000000000000000000000000000000000000000000000000000000000000000000000000000000000000000000000000000000000000000000000000000000000000",
      "type": "0x2",
      "transactionHash": "0xf57f0907134de836ec243b3baeb50bcc74a5c880b08382ac9e949ec9a422d420",
      "transactionIndex": "0x88",
      "blockHash": "0xcc27bfdb5bad83fa39824cfa7d9b7abc7d079d9e9bd64526365ad39ff960b3a0",
      "blockNumber": "0x83e370",
      "gasUsed": "0xb7e6",
      "effectiveGasPrice": "0x7a322",
      "from": "0x14d7795a2566cd16eaa1419a26ddb643ce523655",
      "to": "0x436b630550186555865f969b89803a76d18fab2b",
      "contractAddress": null
    }
  ],
  "libraries": [],
  "pending": [],
  "returns": {},
  "timestamp": 1751066377,
  "chain": 11155111,
  "commit": "2ffbf59"
}