{
  "transactions": [
    {
      "hash": "0x3c4ddb81896e856315a60cc455b7eb6812a0a5a04e9d9a2b257afcb17f301823",
      "transactionType": "CALL",
      "contractName": null,
      "contractAddress": "0x5488bf397b074d8efee58f315c0a2f793fcced75",
      "function": "registerStrategy((uint256,uint8,uint256,(uint64,uint256,(address,uint256)[])[]),uint256)",
      "arguments": [
        "(0, 0, 10000000, [(11155111, 10000000, [(0xB361aB7b925c8F094F16407702d6fD275534d981, 100)])])",
        "0"
      ],
      "transaction": {
        "from": "0x14d7795a2566cd16eaa1419a26ddb643ce523655",
        "to": "0x5488bf397b074d8efee58f315c0a2f793fcced75",
        "gas": "0x50958",
        "value": "0x0",
        "input": "0x8d450b1c000000000000000000000000000000000000000000000000000000000000004000000000000000000000000000000000000000000000000000000000000000000000000000000000000000000000000000000000000000000000000000000000000000000000000000000000000000000000000000000000000000000000000000000000000000000000000000000000000000000000000000000000009896800000000000000000000000000000000000000000000000000000000000000080000000000000000000000000000000000000000000000000000000000000000100000000000000000000000000000000000000000000000000000000000000200000000000000000000000000000000000000000000000000000000000aa36a7000000000000000000000000000000000000000000000000000000000098968000000000000000000000000000000000000000000000000000000000000000600000000000000000000000000000000000000000000000000000000000000001000000000000000000000000b361ab7b925c8f094f16407702d6fd275534d9810000000000000000000000000000000000000000000000000000000000000064",
        "nonce": "0x4e",
        "chainId": "0xaa36a7"
      },
      "additionalContracts": [],
      "isFixedGasLimit": false
    }
  ],
  "receipts": [
    {
      "status": "0x1",
      "cumulativeGasUsed": "0x194fd14",
      "logs": [
        {
          "address": "0x5488bf397b074d8efee58f315c0a2f793fcced75",
          "topics": [
            "0xf6c58d702978645ce3b9b7448f83dc6e5b3484a4e0ef39633435730d73264ec1",
            "0x00000000000000000000000014d7795a2566cd16eaa1419a26ddb643ce523655"
          ],
          "data": "0x00000000000000000000000000000000000000000000000000000000009896800000000000000000000000000000000000000000000000000000000000000000",
          "blockHash": "0xfd33fc0e8f6d3ee437f80342fbf2e4af226276d377daf77ae5017a694c7e6e66",
          "blockNumber": "0x837d98",
          "transactionHash": "0x3c4ddb81896e856315a60cc455b7eb6812a0a5a04e9d9a2b257afcb17f301823",
          "transactionIndex": "0x94",
          "logIndex": "0xff",
          "removed": false
        }
      ],
      "logsBloom": "0x00000000000000000000000000000000000000000000000000000000000000000000000000000000000000000000000000000000000000000000000000000000000000000040000000000000000000000040000000000000000000000000000000000000000000000000000000000000000000004000000000000000000000000000000000000000000000000010000000000000000400000000000000000000000000000000000000000000000100080000000000000000000000020000000000000000000000000000000000000000000000000000000000000000000000000000000000000001000000000000000000000000000000000000000000000000",
      "type": "0x2",
      "transactionHash": "0x3c4ddb81896e856315a60cc455b7eb6812a0a5a04e9d9a2b257afcb17f301823",
      "transactionIndex": "0x94",
      "blockHash": "0xfd33fc0e8f6d3ee437f80342fbf2e4af226276d377daf77ae5017a694c7e6e66",
      "blockNumber": "0x837d98",
      "gasUsed": "0x3a577",
      "effectiveGasPrice": "0x350776",
      "from": "0x14d7795a2566cd16eaa1419a26ddb643ce523655",
      "to": "0x5488bf397b074d8efee58f315c0a2f793fcced75",
      "contractAddress": null
    }
  ],
  "libraries": [],
  "pending": [],
  "returns": {},
  "timestamp": 1750751341,
  "chain": 11155111,
  "commit": "2bca086"
}