{
  "transactions": [
    {
      "hash": "0xd9bd9e0540a8399a0f9d18c968494dc6912018a0c694a925c5fd30d50e4712f5",
      "transactionType": "CALL",
      "contractName": null,
      "contractAddress": "0x5488bf397b074d8efee58f315c0a2f793fcced75",
      "function": "registerStrategy((uint256,uint8,uint256,(uint64,uint256,(address,uint256)[])[]),uint256)",
      "arguments": [
        "(0, 0, 10000000, [(11155111, 10000000, [(0xB361aB7b925c8F094F16407702d6fD275534d981, 100)])])",
        "0"
      ],
      "transaction": {
        "from": "0x14d7795a2566cd16eaa1419a26ddb643ce523655",
        "to": "0x5488bf397b074d8efee58f315c0a2f793fcced75",
        "gas": "0x5b6e1",
        "value": "0x0",
        "input": "0x8d450b1c000000000000000000000000000000000000000000000000000000000000004000000000000000000000000000000000000000000000000000000000000000000000000000000000000000000000000000000000000000000000000000000000000000000000000000000000000000000000000000000000000000000000000000000000000000000000000000000000000000000000000000000000009896800000000000000000000000000000000000000000000000000000000000000080000000000000000000000000000000000000000000000000000000000000000100000000000000000000000000000000000000000000000000000000000000200000000000000000000000000000000000000000000000000000000000aa36a7000000000000000000000000000000000000000000000000000000000098968000000000000000000000000000000000000000000000000000000000000000600000000000000000000000000000000000000000000000000000000000000001000000000000000000000000b361ab7b925c8f094f16407702d6fd275534d9810000000000000000000000000000000000000000000000000000000000000064",
        "nonce": "0x4d",
        "chainId": "0xaa36a7"
      },
      "additionalContracts": [],
      "isFixedGasLimit": false
    }
  ],
  "receipts": [
    {
      "status": "0x1",
      "cumulativeGasUsed": "0x1a03309",
      "logs": [
        {
          "address": "0x5488bf397b074d8efee58f315c0a2f793fcced75",
          "topics": [
            "0xf6c58d702978645ce3b9b7448f83dc6e5b3484a4e0ef39633435730d73264ec1",
            "0x00000000000000000000000014d7795a2566cd16eaa1419a26ddb643ce523655"
          ],
          "data": "0x00000000000000000000000000000000000000000000000000000000009896800000000000000000000000000000000000000000000000000000000000000000",
          "blockHash": "0xd6943984377ab91d97a272c14c15c48641a66c351e3a9a70e1657887a054e3c5",
          "blockNumber": "0x837d95",
          "transactionHash": "0xd9bd9e0540a8399a0f9d18c968494dc6912018a0c694a925c5fd30d50e4712f5",
          "transactionIndex": "0x82",
          "logIndex": "0xb9",
          "removed": false
        }
      ],
      "logsBloom": "0x00000000000000000000000000000000000000000000000000000000000000000000000000000000000000000000000000000000000000000000000000000000000000000040000000000000000000000040000000000000000000000000000000000000000000000000000000000000000000004000000000000000000000000000000000000000000000000010000000000000000400000000000000000000000000000000000000000000000100080000000000000000000000020000000000000000000000000000000000000000000000000000000000000000000000000000000000000001000000000000000000000000000000000000000000000000",
      "type": "0x2",
      "transactionHash": "0xd9bd9e0540a8399a0f9d18c968494dc6912018a0c694a925c5fd30d50e4712f5",
      "transactionIndex": "0x82",
      "blockHash": "0xd6943984377ab91d97a272c14c15c48641a66c351e3a9a70e1657887a054e3c5",
      "blockNumber": "0x837d95",
      "gasUsed": "0x3e843",
      "effectiveGasPrice": "0x384517",
      "from": "0x14d7795a2566cd16eaa1419a26ddb643ce523655",
      "to": "0x5488bf397b074d8efee58f315c0a2f793fcced75",
      "contractAddress": null
    }
  ],
  "libraries": [],
  "pending": [],
  "returns": {},
  "timestamp": 1750751305,
  "chain": 11155111,
  "commit": "2bca086"
}