{
  "transactions": [
    {
      "hash": "0xbfa0e5d10e7ac08fd9b5107bf3eca1f1eedf60106beecf9af6925031d78c90ec",
      "transactionType": "CALL",
      "contractName": null,
      "contractAddress": "0x5488bf397b074d8efee58f315c0a2f793fcced75",
      "function": "registerStrategy((uint256,uint8,uint256,(uint64,uint256,(address,uint256)[])[]),uint256)",
      "arguments": [
        "(3, 1, 10000000, [(11155111, 10000000, [(0xB361aB7b925c8F094F16407702d6fD275534d981, 100)])])",
        "3"
      ],
      "transaction": {
        "from": "0x14d7795a2566cd16eaa1419a26ddb643ce523655",
        "to": "0x5488bf397b074d8efee58f315c0a2f793fcced75",
        "gas": "0x5c691",
        "value": "0x0",
        "input": "0x8d450b1c000000000000000000000000000000000000000000000000000000000000004000000000000000000000000000000000000000000000000000000000000000030000000000000000000000000000000000000000000000000000000000000003000000000000000000000000000000000000000000000000000000000000000100000000000000000000000000000000000000000000000000000000009896800000000000000000000000000000000000000000000000000000000000000080000000000000000000000000000000000000000000000000000000000000000100000000000000000000000000000000000000000000000000000000000000200000000000000000000000000000000000000000000000000000000000aa36a7000000000000000000000000000000000000000000000000000000000098968000000000000000000000000000000000000000000000000000000000000000600000000000000000000000000000000000000000000000000000000000000001000000000000000000000000b361ab7b925c8f094f16407702d6fd275534d9810000000000000000000000000000000000000000000000000000000000000064",
        "nonce": "0xa0",
        "chainId": "0xaa36a7"
      },
      "additionalContracts": [],
      "isFixedGasLimit": false
    }
  ],
  "receipts": [
    {
      "status": "0x1",
      "cumulativeGasUsed": "0x21364ca",
      "logs": [
        {
          "address": "0x5488bf397b074d8efee58f315c0a2f793fcced75",
          "topics": [
            "0xf6c58d702978645ce3b9b7448f83dc6e5b3484a4e0ef39633435730d73264ec1",
            "0x00000000000000000000000014d7795a2566cd16eaa1419a26ddb643ce523655"
          ],
          "data": "0x00000000000000000000000000000000000000000000000000000000009896800000000000000000000000000000000000000000000000000000000000000003",
          "blockHash": "0x311d9d43f683b630da33e3a5c93300d751ca902d54b9e4941fc71df0d1c57490",
          "blockNumber": "0x83dc9d",
          "transactionHash": "0xbfa0e5d10e7ac08fd9b5107bf3eca1f1eedf60106beecf9af6925031d78c90ec",
          "transactionIndex": "0xa2",
          "logIndex": "0x11d",
          "removed": false
        }
      ],
      "logsBloom": "0x00000000000000000000000000000000000000000000000000000000000000000000000000000000000000000000000000000000000000000000000000000000000000000040000000000000000000000040000000000000000000000000000000000000000000000000000000000000000000004000000000000000000000000000000000000000000000000010000000000000000400000000000000000000000000000000000000000000000100080000000000000000000000020000000000000000000000000000000000000000000000000000000000000000000000000000000000000001000000000000000000000000000000000000000000000000",
      "type": "0x2",
      "transactionHash": "0xbfa0e5d10e7ac08fd9b5107bf3eca1f1eedf60106beecf9af6925031d78c90ec",
      "transactionIndex": "0xa2",
      "blockHash": "0x311d9d43f683b630da33e3a5c93300d751ca902d54b9e4941fc71df0d1c57490",
      "blockNumber": "0x83dc9d",
      "gasUsed": "0x42e75",
      "effectiveGasPrice": "0x13000c",
      "from": "0x14d7795a2566cd16eaa1419a26ddb643ce523655",
      "to": "0x5488bf397b074d8efee58f315c0a2f793fcced75",
      "contractAddress": null
    }
  ],
  "libraries": [],
  "pending": [],
  "returns": {},
  "timestamp": 1751045401,
  "chain": 11155111,
  "commit": "2ffbf59"
}