{
  "transactions": [
    {
      "hash": "0xbc4d9df6149878b7474217085b379ee921865afb00dd157ecad423c60ed58c49",
      "transactionType": "CALL",
      "contractName": null,
      "contractAddress": "0x5488bf397b074d8efee58f315c0a2f793fcced75",
      "function": "registerStrategy((uint256,uint8,uint256,(uint64,uint256,(address,uint256)[])[]),uint256)",
      "arguments": [
        "(3, 1, 10000000, [(11155111, 10000000, [(0xB361aB7b925c8F094F16407702d6fD275534d981, 100)])])",
        "3"
      ],
      "transaction": {
        "from": "0x14d7795a2566cd16eaa1419a26ddb643ce523655",
        "to": "0x5488bf397b074d8efee58f315c0a2f793fcced75",
        "gas": "0x5c691",
        "value": "0x0",
        "input": "0x8d450b1c000000000000000000000000000000000000000000000000000000000000004000000000000000000000000000000000000000000000000000000000000000030000000000000000000000000000000000000000000000000000000000000003000000000000000000000000000000000000000000000000000000000000000100000000000000000000000000000000000000000000000000000000009896800000000000000000000000000000000000000000000000000000000000000080000000000000000000000000000000000000000000000000000000000000000100000000000000000000000000000000000000000000000000000000000000200000000000000000000000000000000000000000000000000000000000aa36a7000000000000000000000000000000000000000000000000000000000098968000000000000000000000000000000000000000000000000000000000000000600000000000000000000000000000000000000000000000000000000000000001000000000000000000000000b361ab7b925c8f094f16407702d6fd275534d9810000000000000000000000000000000000000000000000000000000000000064",
        "nonce": "0xa2",
        "chainId": "0xaa36a7"
      },
      "additionalContracts": [],
      "isFixedGasLimit": false
    }
  ],
  "receipts": [
    {
      "status": "0x1",
      "cumulativeGasUsed": "0xc0a4eb",
      "logs": [
        {
          "address": "0x5488bf397b074d8efee58f315c0a2f793fcced75",
          "topics": [
            "0xf6c58d702978645ce3b9b7448f83dc6e5b3484a4e0ef39633435730d73264ec1",
            "0x00000000000000000000000014d7795a2566cd16eaa1419a26ddb643ce523655"
          ],
          "data": "0x00000000000000000000000000000000000000000000000000000000009896800000000000000000000000000000000000000000000000000000000000000003",
          "blockHash": "0xbd75e260d70a05b67a894a121bf0e1a2e17ab2ce819a4c115bb1bf245457f319",
          "blockNumber": "0x83dddb",
          "transactionHash": "0xbc4d9df6149878b7474217085b379ee921865afb00dd157ecad423c60ed58c49",
          "transactionIndex": "0x8c",
          "logIndex": "0xb4",
          "removed": false
        }
      ],
      "logsBloom": "0x00000000000000000000000000000000000000000000000000000000000000000000000000000000000000000000000000000000000000000000000000000000000000000040000000000000000000000040000000000000000000000000000000000000000000000000000000000000000000004000000000000000000000000000000000000000000000000010000000000000000400000000000000000000000000000000000000000000000100080000000000000000000000020000000000000000000000000000000000000000000000000000000000000000000000000000000000000001000000000000000000000000000000000000000000000000",
      "type": "0x2",
      "transactionHash": "0xbc4d9df6149878b7474217085b379ee921865afb00dd157ecad423c60ed58c49",
      "transactionIndex": "0x8c",
      "blockHash": "0xbd75e260d70a05b67a894a121bf0e1a2e17ab2ce819a4c115bb1bf245457f319",
      "blockNumber": "0x83dddb",
      "gasUsed": "0x42e75",
      "effectiveGasPrice": "0x14f1b1f",
      "from": "0x14d7795a2566cd16eaa1419a26ddb643ce523655",
      "to": "0x5488bf397b074d8efee58f315c0a2f793fcced75",
      "contractAddress": null
    }
  ],
  "libraries": [],
  "pending": [],
  "returns": {},
  "timestamp": 1751049217,
  "chain": 11155111,
  "commit": "a92698a"
}