{
  "transactions": [
    {
      "hash": "0x281837e5649a9d32c2cbb9953c64b5ea751517a570f2bf262179b2b00b8688b5",
      "transactionType": "CALL",
      "contractName": null,
      "contractAddress": "0x8b162a960ca4f45e219db23b90132bf6b0e56271",
      "function": "removeSupportedChainId(uint64)",
      "arguments": [
        "11155111"
      ],
      "transaction": {
        "from": "0x14d7795a2566cd16eaa1419a26ddb643ce523655",
        "to": "0x8b162a960ca4f45e219db23b90132bf6b0e56271",
        "gas": "0x93cf",
        "value": "0x0",
        "input": "0x08618de00000000000000000000000000000000000000000000000000000000000aa36a7",
        "nonce": "0x25",
        "chainId": "0xa869"
      },
      "additionalContracts": [],
      "isFixedGasLimit": false
    },
    {
      "hash": "0xb9f65618c300e143eadc1c21a8cf5b2d0b22e101c63255508e64f7852f6fc79f",
      "transactionType": "CALL",
      "contractName": null,
      "contractAddress": "0x8b162a960ca4f45e219db23b90132bf6b0e56271",
      "function": "addSupportedChainId(uint64,address)",
      "arguments": [
        "11155111",
        "0xD63dcF5091d3776D01d727b92d195cF54c10F0d2"
      ],
      "transaction": {
        "from": "0x14d7795a2566cd16eaa1419a26ddb643ce523655",
        "to": "0x8b162a960ca4f45e219db23b90132bf6b0e56271",
        "gas": "0x10c1a",
        "value": "0x0",
        "input": "0xf8d7e75a0000000000000000000000000000000000000000000000000000000000aa36a7000000000000000000000000d63dcf5091d3776d01d727b92d195cf54c10f0d2",
        "nonce": "0x26",
        "chainId": "0xa869"
      },
      "additionalContracts": [],
      "isFixedGasLimit": false
    },
    {
      "hash": "0xd7dcce3a8758ee79cfb942c99a31c2436ed1bc5d10f2ee9c70237e76424713f5",
      "transactionType": "CALL",
      "contractName": null,
      "contractAddress": "0x8b162a960ca4f45e219db23b90132bf6b0e56271",
      "function": "addProtocol(uint64,string,address)",
      "arguments": [
        "11155111",
        "TestAdapter",
        "0x66118D36C7eeeD2134D6De444b60d2DD2DB310FD"
      ],
      "transaction": {
        "from": "0x14d7795a2566cd16eaa1419a26ddb643ce523655",
        "to": "0x8b162a960ca4f45e219db23b90132bf6b0e56271",
        "gas": "0x21cc6",
        "value": "0x0",
        "input": "0xd27326190000000000000000000000000000000000000000000000000000000000aa36a7000000000000000000000000000000000000000000000000000000000000006000000000000000000000000066118d36c7eeed2134d6de444b60d2dd2db310fd000000000000000000000000000000000000000000000000000000000000000b5465737441646170746572000000000000000000000000000000000000000000",
        "nonce": "0x27",
        "chainId": "0xa869"
      },
      "additionalContracts": [],
      "isFixedGasLimit": false
    },
    {
      "hash": "0xb457a0e8e2853acb56ef5693c0e213d449dc82003205bbe769ae0f6246bf172b",
      "transactionType": "CALL",
      "contractName": null,
      "contractAddress": "0x8b162a960ca4f45e219db23b90132bf6b0e56271",
      "function": "removeSupportedChainId(uint64)",
      "arguments": [
        "43113"
      ],
      "transaction": {
        "from": "0x14d7795a2566cd16eaa1419a26ddb643ce523655",
        "to": "0x8b162a960ca4f45e219db23b90132bf6b0e56271",
        "gas": "0x8b88",
        "value": "0x0",
        "input": "0x08618de0000000000000000000000000000000000000000000000000000000000000a869",
        "nonce": "0x28",
        "chainId": "0xa869"
      },
      "additionalContracts": [],
      "isFixedGasLimit": false
    },
    {
      "hash": "0xf7590bcd9549ed746b9e36a613f9ef0a47dfd661a77f843f081c2dd438c23f7b",
      "transactionType": "CALL",
      "contractName": null,
      "contractAddress": "0x8b162a960ca4f45e219db23b90132bf6b0e56271",
      "function": "addSupportedChainId(uint64,address)",
      "arguments": [
        "43113",
        "0xB113bBd621639C3547a068391D3B025361DC1f23"
      ],
      "transaction": {
        "from": "0x14d7795a2566cd16eaa1419a26ddb643ce523655",
        "to": "0x8b162a960ca4f45e219db23b90132bf6b0e56271",
        "gas": "0xfd25",
        "value": "0x0",
        "input": "0xf8d7e75a000000000000000000000000000000000000000000000000000000000000a869000000000000000000000000b113bbd621639c3547a068391d3b025361dc1f23",
        "nonce": "0x29",
        "chainId": "0xa869"
      },
      "additionalContracts": [],
      "isFixedGasLimit": false
    },
    {
      "hash": "0x8545dace16d1f3cbb3355aa18eb97702051cd9bdc665ca96876308d698ebc1ad",
      "transactionType": "CALL",
      "contractName": null,
      "contractAddress": "0x8b162a960ca4f45e219db23b90132bf6b0e56271",
      "function": "addProtocol(uint64,string,address)",
      "arguments": [
        "43113",
        "TestAdapter",
        "0x66118D36C7eeeD2134D6De444b60d2DD2DB310FD"
      ],
      "transaction": {
        "from": "0x14d7795a2566cd16eaa1419a26ddb643ce523655",
        "to": "0x8b162a960ca4f45e219db23b90132bf6b0e56271",
        "gas": "0x1feaa",
        "value": "0x0",
        "input": "0xd2732619000000000000000000000000000000000000000000000000000000000000a869000000000000000000000000000000000000000000000000000000000000006000000000000000000000000066118d36c7eeed2134d6de444b60d2dd2db310fd000000000000000000000000000000000000000000000000000000000000000b5465737441646170746572000000000000000000000000000000000000000000",
        "nonce": "0x2a",
        "chainId": "0xa869"
      },
      "additionalContracts": [],
      "isFixedGasLimit": false
    }
  ],
  "receipts": [
    {
      "status": "0x1",
      "cumulativeGasUsed": "0x49e46c",
      "logs": [],
      "logsBloom": "0x00000000000000000000000000000000000000000000000000000000000000000000000000000000000000000000000000000000000000000000000000000000000000000000000000000000000000000000000000000000000000000000000000000000000000000000000000000000000000000000000000000000000000000000000000000000000000000000000000000000000000000000000000000000000000000000000000000000000000000000000000000000000000000000000000000000000000000000000000000000000000000000000000000000000000000000000000000000000000000000000000000000000000000000000000000000",
      "type": "0x2",
      "transactionHash": "0x281837e5649a9d32c2cbb9953c64b5ea751517a570f2bf262179b2b00b8688b5",
      "transactionIndex": "0x3",
      "blockHash": "0xb7bf6f15cff53ce675afeaf97a51ff0d3e197110c8bc6cd35ba2cbae071cc711",
      "blockNumber": "0x286688e",
      "gasUsed": "0x6511",
      "effectiveGasPrice": "0x2",
      "from": "0x14d7795a2566cd16eaa1419a26ddb643ce523655",
      "to": "0x8b162a960ca4f45e219db23b90132bf6b0e56271",
      "contractAddress": null
    },
    {
      "status": "0x1",
      "cumulativeGasUsed": "0x4a9bbe",
      "logs": [],
      "logsBloom": "0x00000000000000000000000000000000000000000000000000000000000000000000000000000000000000000000000000000000000000000000000000000000000000000000000000000000000000000000000000000000000000000000000000000000000000000000000000000000000000000000000000000000000000000000000000000000000000000000000000000000000000000000000000000000000000000000000000000000000000000000000000000000000000000000000000000000000000000000000000000000000000000000000000000000000000000000000000000000000000000000000000000000000000000000000000000000",
      "type": "0x2",
      "transactionHash": "0xb9f65618c300e143eadc1c21a8cf5b2d0b22e101c63255508e64f7852f6fc79f",
      "transactionIndex": "0x4",
      "blockHash": "0xb7bf6f15cff53ce675afeaf97a51ff0d3e197110c8bc6cd35ba2cbae071cc711",
      "blockNumber": "0x286688e",
      "gasUsed": "0xb752",
      "effectiveGasPrice": "0x2",
      "from": "0x14d7795a2566cd16eaa1419a26ddb643ce523655",
      "to": "0x8b162a960ca4f45e219db23b90132bf6b0e56271",
      "contractAddress": null
    },
    {
      "status": "0x1",
      "cumulativeGasUsed": "0x4c0d81",
      "logs": [],
      "logsBloom": "0x00000000000000000000000000000000000000000000000000000000000000000000000000000000000000000000000000000000000000000000000000000000000000000000000000000000000000000000000000000000000000000000000000000000000000000000000000000000000000000000000000000000000000000000000000000000000000000000000000000000000000000000000000000000000000000000000000000000000000000000000000000000000000000000000000000000000000000000000000000000000000000000000000000000000000000000000000000000000000000000000000000000000000000000000000000000",
      "type": "0x2",
      "transactionHash": "0xd7dcce3a8758ee79cfb942c99a31c2436ed1bc5d10f2ee9c70237e76424713f5",
      "transactionIndex": "0x5",
      "blockHash": "0xb7bf6f15cff53ce675afeaf97a51ff0d3e197110c8bc6cd35ba2cbae071cc711",
      "blockNumber": "0x286688e",
      "gasUsed": "0x171c3",
      "effectiveGasPrice": "0x2",
      "from": "0x14d7795a2566cd16eaa1419a26ddb643ce523655",
      "to": "0x8b162a960ca4f45e219db23b90132bf6b0e56271",
      "contractAddress": null
    },
    {
      "status": "0x1",
      "cumulativeGasUsed": "0x4c7286",
      "logs": [],
      "logsBloom": "0x00000000000000000000000000000000000000000000000000000000000000000000000000000000000000000000000000000000000000000000000000000000000000000000000000000000000000000000000000000000000000000000000000000000000000000000000000000000000000000000000000000000000000000000000000000000000000000000000000000000000000000000000000000000000000000000000000000000000000000000000000000000000000000000000000000000000000000000000000000000000000000000000000000000000000000000000000000000000000000000000000000000000000000000000000000000",
      "type": "0x2",
      "transactionHash": "0xb457a0e8e2853acb56ef5693c0e213d449dc82003205bbe769ae0f6246bf172b",
      "transactionIndex": "0x6",
      "blockHash": "0xb7bf6f15cff53ce675afeaf97a51ff0d3e197110c8bc6cd35ba2cbae071cc711",
      "blockNumber": "0x286688e",
      "gasUsed": "0x6505",
      "effectiveGasPrice": "0x2",
      "from": "0x14d7795a2566cd16eaa1419a26ddb643ce523655",
      "to": "0x8b162a960ca4f45e219db23b90132bf6b0e56271",
      "contractAddress": null
    },
    {
      "status": "0x1",
      "cumulativeGasUsed": "0x4d29cc",
      "logs": [],
      "logsBloom": "0x00000000000000000000000000000000000000000000000000000000000000000000000000000000000000000000000000000000000000000000000000000000000000000000000000000000000000000000000000000000000000000000000000000000000000000000000000000000000000000000000000000000000000000000000000000000000000000000000000000000000000000000000000000000000000000000000000000000000000000000000000000000000000000000000000000000000000000000000000000000000000000000000000000000000000000000000000000000000000000000000000000000000000000000000000000000",
      "type": "0x2",
      "transactionHash": "0xf7590bcd9549ed746b9e36a613f9ef0a47dfd661a77f843f081c2dd438c23f7b",
      "transactionIndex": "0x7",
      "blockHash": "0xb7bf6f15cff53ce675afeaf97a51ff0d3e197110c8bc6cd35ba2cbae071cc711",
      "blockNumber": "0x286688e",
      "gasUsed": "0xb746",
      "effectiveGasPrice": "0x2",
      "from": "0x14d7795a2566cd16eaa1419a26ddb643ce523655",
      "to": "0x8b162a960ca4f45e219db23b90132bf6b0e56271",
      "contractAddress": null
    },
    {
      "status": "0x1",
      "cumulativeGasUsed": "0x4e9b83",
      "logs": [],
      "logsBloom": "0x00000000000000000000000000000000000000000000000000000000000000000000000000000000000000000000000000000000000000000000000000000000000000000000000000000000000000000000000000000000000000000000000000000000000000000000000000000000000000000000000000000000000000000000000000000000000000000000000000000000000000000000000000000000000000000000000000000000000000000000000000000000000000000000000000000000000000000000000000000000000000000000000000000000000000000000000000000000000000000000000000000000000000000000000000000000",
      "type": "0x2",
      "transactionHash": "0x8545dace16d1f3cbb3355aa18eb97702051cd9bdc665ca96876308d698ebc1ad",
      "transactionIndex": "0x8",
      "blockHash": "0xb7bf6f15cff53ce675afeaf97a51ff0d3e197110c8bc6cd35ba2cbae071cc711",
      "blockNumber": "0x286688e",
      "gasUsed": "0x171b7",
      "effectiveGasPrice": "0x2",
      "from": "0x14d7795a2566cd16eaa1419a26ddb643ce523655",
      "to": "0x8b162a960ca4f45e219db23b90132bf6b0e56271",
      "contractAddress": null
    }
  ],
  "libraries": [],
  "pending": [],
  "returns": {},
  "timestamp": 1750744223,
  "chain": 43113,
  "commit": "8b00971"
}