{
  "transactions": [
    {
      "hash": "0x23e368d6321c5d94c1f717a2c8fdf92dbdce4b323789df62d8f1ee73485fda4b",
      "transactionType": "CALL",
      "contractName": null,
      "contractAddress": "0x8b162a960ca4f45e219db23b90132bf6b0e56271",
      "function": "removeSupportedChainId(uint64)",
      "arguments": [
        "11155111"
      ],
      "transaction": {
        "from": "0x14d7795a2566cd16eaa1419a26ddb643ce523655",
        "to": "0x8b162a960ca4f45e219db23b90132bf6b0e56271",
        "gas": "0x8862",
        "value": "0x0",
        "input": "0x08618de00000000000000000000000000000000000000000000000000000000000aa36a7",
        "nonce": "0x2d",
        "chainId": "0xa869"
      },
      "additionalContracts": [],
      "isFixedGasLimit": false
    },
    {
      "hash": "0x8c01f536fe27c8b5c57821ac0456d3f5ddd6f5bc715d8a7e8d83517ba832f990",
      "transactionType": "CALL",
      "contractName": null,
      "contractAddress": "0x8b162a960ca4f45e219db23b90132bf6b0e56271",
      "function": "addSupportedChainId(uint64,address)",
      "arguments": [
        "11155111",
        "0xD63dcF5091d3776D01d727b92d195cF54c10F0d2"
      ],
      "transaction": {
        "from": "0x14d7795a2566cd16eaa1419a26ddb643ce523655",
        "to": "0x8b162a960ca4f45e219db23b90132bf6b0e56271",
        "gas": "0x10c1a",
        "value": "0x0",
        "input": "0xf8d7e75a0000000000000000000000000000000000000000000000000000000000aa36a7000000000000000000000000d63dcf5091d3776d01d727b92d195cf54c10f0d2",
        "nonce": "0x2e",
        "chainId": "0xa869"
      },
      "additionalContracts": [],
      "isFixedGasLimit": false
    },
    {
      "hash": "0x7146881b79c2f8dd8e9f543ecdc00192cf112addd949760f9d71eff8db4613a6",
      "transactionType": "CALL",
      "contractName": null,
      "contractAddress": "0x8b162a960ca4f45e219db23b90132bf6b0e56271",
      "function": "addProtocol(uint64,string,address)",
      "arguments": [
        "11155111",
        "TestAdapter",
        "0x66118D36C7eeeD2134D6De444b60d2DD2DB310FD"
      ],
      "transaction": {
        "from": "0x14d7795a2566cd16eaa1419a26ddb643ce523655",
        "to": "0x8b162a960ca4f45e219db23b90132bf6b0e56271",
        "gas": "0x1a277",
        "value": "0x0",
        "input": "0xd27326190000000000000000000000000000000000000000000000000000000000aa36a7000000000000000000000000000000000000000000000000000000000000006000000000000000000000000066118d36c7eeed2134d6de444b60d2dd2db310fd000000000000000000000000000000000000000000000000000000000000000b5465737441646170746572000000000000000000000000000000000000000000",
        "nonce": "0x2f",
        "chainId": "0xa869"
      },
      "additionalContracts": [],
      "isFixedGasLimit": false
    },
    {
      "hash": "0x6f7ee565136d2de7d2af3ef692a14159a397e2904ddf84a7ae0427ef86bf3b32",
      "transactionType": "CALL",
      "contractName": null,
      "contractAddress": "0x8b162a960ca4f45e219db23b90132bf6b0e56271",
      "function": "removeSupportedChainId(uint64)",
      "arguments": [
        "43113"
      ],
      "transaction": {
        "from": "0x14d7795a2566cd16eaa1419a26ddb643ce523655",
        "to": "0x8b162a960ca4f45e219db23b90132bf6b0e56271",
        "gas": "0x80bd",
        "value": "0x0",
        "input": "0x08618de0000000000000000000000000000000000000000000000000000000000000a869",
        "nonce": "0x30",
        "chainId": "0xa869"
      },
      "additionalContracts": [],
      "isFixedGasLimit": false
    },
    {
      "hash": "0xc4a84a61960c9e33bbc5f1e4d2ec29ce627286bdc12311325be0f98b581351cf",
      "transactionType": "CALL",
      "contractName": null,
      "contractAddress": "0x8b162a960ca4f45e219db23b90132bf6b0e56271",
      "function": "addSupportedChainId(uint64,address)",
      "arguments": [
        "43113",
        "0x8c10cce8Ad744B6620c8b1300C3cbf6f5CD835eC"
      ],
      "transaction": {
        "from": "0x14d7795a2566cd16eaa1419a26ddb643ce523655",
        "to": "0x8b162a960ca4f45e219db23b90132bf6b0e56271",
        "gas": "0xfd25",
        "value": "0x0",
        "input": "0xf8d7e75a000000000000000000000000000000000000000000000000000000000000a8690000000000000000000000008c10cce8ad744b6620c8b1300c3cbf6f5cd835ec",
        "nonce": "0x31",
        "chainId": "0xa869"
      },
      "additionalContracts": [],
      "isFixedGasLimit": false
    },
    {
      "hash": "0x28aeae09f3d30dc9893248bace1ef29c3e07383d65a880f10f191328094d6949",
      "transactionType": "CALL",
      "contractName": null,
      "contractAddress": "0x8b162a960ca4f45e219db23b90132bf6b0e56271",
      "function": "addProtocol(uint64,string,address)",
      "arguments": [
        "43113",
        "TestAdapter",
        "0x66118D36C7eeeD2134D6De444b60d2DD2DB310FD"
      ],
      "transaction": {
        "from": "0x14d7795a2566cd16eaa1419a26ddb643ce523655",
        "to": "0x8b162a960ca4f45e219db23b90132bf6b0e56271",
        "gas": "0x1bb04",
        "value": "0x0",
        "input": "0xd2732619000000000000000000000000000000000000000000000000000000000000a869000000000000000000000000000000000000000000000000000000000000006000000000000000000000000066118d36c7eeed2134d6de444b60d2dd2db310fd000000000000000000000000000000000000000000000000000000000000000b5465737441646170746572000000000000000000000000000000000000000000",
        "nonce": "0x32",
        "chainId": "0xa869"
      },
      "additionalContracts": [],
      "isFixedGasLimit": false
    }
  ],
  "receipts": [
    {
      "status": "0x1",
      "cumulativeGasUsed": "0x7001",
      "logs": [],
      "logsBloom": "0x00000000000000000000000000000000000000000000000000000000000000000000000000000000000000000000000000000000000000000000000000000000000000000000000000000000000000000000000000000000000000000000000000000000000000000000000000000000000000000000000000000000000000000000000000000000000000000000000000000000000000000000000000000000000000000000000000000000000000000000000000000000000000000000000000000000000000000000000000000000000000000000000000000000000000000000000000000000000000000000000000000000000000000000000000000000",
      "type": "0x2",
      "transactionHash": "0x23e368d6321c5d94c1f717a2c8fdf92dbdce4b323789df62d8f1ee73485fda4b",
      "transactionIndex": "0x0",
      "blockHash": "0x88388e5828633cb138d8c35f1b26471c032e9dbd2d1726ec93dc4713dbc7874e",
      "blockNumber": "0x2866c41",
      "gasUsed": "0x7001",
      "effectiveGasPrice": "0x3",
      "from": "0x14d7795a2566cd16eaa1419a26ddb643ce523655",
      "to": "0x8b162a960ca4f45e219db23b90132bf6b0e56271",
      "contractAddress": null
    },
    {
      "status": "0x1",
      "cumulativeGasUsed": "0x12753",
      "logs": [],
      "logsBloom": "0x00000000000000000000000000000000000000000000000000000000000000000000000000000000000000000000000000000000000000000000000000000000000000000000000000000000000000000000000000000000000000000000000000000000000000000000000000000000000000000000000000000000000000000000000000000000000000000000000000000000000000000000000000000000000000000000000000000000000000000000000000000000000000000000000000000000000000000000000000000000000000000000000000000000000000000000000000000000000000000000000000000000000000000000000000000000",
      "type": "0x2",
      "transactionHash": "0x8c01f536fe27c8b5c57821ac0456d3f5ddd6f5bc715d8a7e8d83517ba832f990",
      "transactionIndex": "0x1",
      "blockHash": "0x88388e5828633cb138d8c35f1b26471c032e9dbd2d1726ec93dc4713dbc7874e",
      "blockNumber": "0x2866c41",
      "gasUsed": "0xb752",
      "effectiveGasPrice": "0x3",
      "from": "0x14d7795a2566cd16eaa1419a26ddb643ce523655",
      "to": "0x8b162a960ca4f45e219db23b90132bf6b0e56271",
      "contractAddress": null
    },
    {
      "status": "0x1",
      "cumulativeGasUsed": "0x2564a",
      "logs": [],
      "logsBloom": "0x00000000000000000000000000000000000000000000000000000000000000000000000000000000000000000000000000000000000000000000000000000000000000000000000000000000000000000000000000000000000000000000000000000000000000000000000000000000000000000000000000000000000000000000000000000000000000000000000000000000000000000000000000000000000000000000000000000000000000000000000000000000000000000000000000000000000000000000000000000000000000000000000000000000000000000000000000000000000000000000000000000000000000000000000000000000",
      "type": "0x2",
      "transactionHash": "0x7146881b79c2f8dd8e9f543ecdc00192cf112addd949760f9d71eff8db4613a6",
      "transactionIndex": "0x2",
      "blockHash": "0x88388e5828633cb138d8c35f1b26471c032e9dbd2d1726ec93dc4713dbc7874e",
      "blockNumber": "0x2866c41",
      "gasUsed": "0x12ef7",
      "effectiveGasPrice": "0x3",
      "from": "0x14d7795a2566cd16eaa1419a26ddb643ce523655",
      "to": "0x8b162a960ca4f45e219db23b90132bf6b0e56271",
      "contractAddress": null
    },
    {
      "status": "0x1",
      "cumulativeGasUsed": "0x2c63f",
      "logs": [],
      "logsBloom": "0x00000000000000000000000000000000000000000000000000000000000000000000000000000000000000000000000000000000000000000000000000000000000000000000000000000000000000000000000000000000000000000000000000000000000000000000000000000000000000000000000000000000000000000000000000000000000000000000000000000000000000000000000000000000000000000000000000000000000000000000000000000000000000000000000000000000000000000000000000000000000000000000000000000000000000000000000000000000000000000000000000000000000000000000000000000000",
      "type": "0x2",
      "transactionHash": "0x6f7ee565136d2de7d2af3ef692a14159a397e2904ddf84a7ae0427ef86bf3b32",
      "transactionIndex": "0x3",
      "blockHash": "0x88388e5828633cb138d8c35f1b26471c032e9dbd2d1726ec93dc4713dbc7874e",
      "blockNumber": "0x2866c41",
      "gasUsed": "0x6ff5",
      "effectiveGasPrice": "0x3",
      "from": "0x14d7795a2566cd16eaa1419a26ddb643ce523655",
      "to": "0x8b162a960ca4f45e219db23b90132bf6b0e56271",
      "contractAddress": null
    },
    {
      "status": "0x1",
      "cumulativeGasUsed": "0x37d85",
      "logs": [],
      "logsBloom": "0x00000000000000000000000000000000000000000000000000000000000000000000000000000000000000000000000000000000000000000000000000000000000000000000000000000000000000000000000000000000000000000000000000000000000000000000000000000000000000000000000000000000000000000000000000000000000000000000000000000000000000000000000000000000000000000000000000000000000000000000000000000000000000000000000000000000000000000000000000000000000000000000000000000000000000000000000000000000000000000000000000000000000000000000000000000000",
      "type": "0x2",
      "transactionHash": "0xc4a84a61960c9e33bbc5f1e4d2ec29ce627286bdc12311325be0f98b581351cf",
      "transactionIndex": "0x4",
      "blockHash": "0x88388e5828633cb138d8c35f1b26471c032e9dbd2d1726ec93dc4713dbc7874e",
      "blockNumber": "0x2866c41",
      "gasUsed": "0xb746",
      "effectiveGasPrice": "0x3",
      "from": "0x14d7795a2566cd16eaa1419a26ddb643ce523655",
      "to": "0x8b162a960ca4f45e219db23b90132bf6b0e56271",
      "contractAddress": null
    },
    {
      "status": "0x1",
      "cumulativeGasUsed": "0x4ac70",
      "logs": [],
      "logsBloom": "0x00000000000000000000000000000000000000000000000000000000000000000000000000000000000000000000000000000000000000000000000000000000000000000000000000000000000000000000000000000000000000000000000000000000000000000000000000000000000000000000000000000000000000000000000000000000000000000000000000000000000000000000000000000000000000000000000000000000000000000000000000000000000000000000000000000000000000000000000000000000000000000000000000000000000000000000000000000000000000000000000000000000000000000000000000000000",
      "type": "0x2",
      "transactionHash": "0x28aeae09f3d30dc9893248bace1ef29c3e07383d65a880f10f191328094d6949",
      "transactionIndex": "0x5",
      "blockHash": "0x88388e5828633cb138d8c35f1b26471c032e9dbd2d1726ec93dc4713dbc7874e",
      "blockNumber": "0x2866c41",
      "gasUsed": "0x12eeb",
      "effectiveGasPrice": "0x3",
      "from": "0x14d7795a2566cd16eaa1419a26ddb643ce523655",
      "to": "0x8b162a960ca4f45e219db23b90132bf6b0e56271",
      "contractAddress": null
    }
  ],
  "libraries": [],
  "pending": [],
  "returns": {},
  "timestamp": 1750745899,
  "chain": 43113,
  "commit": "8b00971"
}