{
  "transactions": [
    {
      "hash": "0xe65f9aa96c86721cb0f2839a590e33d1b6df668fe094a92a59f9e6308c3de987",
      "transactionType": "CALL",
      "contractName": null,
      "contractAddress": "0x779877a7b0d9e8603169ddbd7836e478b4624789",
      "function": "transfer(address,uint256)",
      "arguments": [
        "0x7d84d5EDee86B2AC25F8b987335Fb5359c6C9739",
        "100000000000000000"
      ],
      "transaction": {
        "from": "0x14d7795a2566cd16eaa1419a26ddb643ce523655",
        "to": "0x779877a7b0d9e8603169ddbd7836e478b4624789",
        "gas": "0xba74",
        "value": "0x0",
        "input": "0xa9059cbb0000000000000000000000007d84d5edee86b2ac25f8b987335fb5359c6c9739000000000000000000000000000000000000000000000000016345785d8a0000",
        "nonce": "0xb6",
        "chainId": "0xaa36a7"
      },
      "additionalContracts": [],
      "isFixedGasLimit": false
    }
  ],
  "receipts": [
    {
      "status": "0x1",
      "cumulativeGasUsed": "0x32e945f",
      "logs": [
        {
          "address": "0x779877a7b0d9e8603169ddbd7836e478b4624789",
          "topics": [
            "0xddf252ad1be2c89b69c2b068fc378daa952ba7f163c4a11628f55a4df523b3ef",
            "0x00000000000000000000000014d7795a2566cd16eaa1419a26ddb643ce523655",
            "0x0000000000000000000000007d84d5edee86b2ac25f8b987335fb5359c6c9739"
          ],
          "data": "0x000000000000000000000000000000000000000000000000016345785d8a0000",
          "blockHash": "0x9708746bcfd86873a7454a4ba2fcff908994599f8eacc4d9c0dd011c1036b61b",
          "blockNumber": "0x83e667",
          "transactionHash": "0xe65f9aa96c86721cb0f2839a590e33d1b6df668fe094a92a59f9e6308c3de987",
          "transactionIndex": "0xe3",
          "logIndex": "0x109e",
          "removed": false
        }
      ],
      "logsBloom": "0x00000004000000000000000000000000000000000000000000000000000000000000000000000000000000000000000000000000000000000000000000000000000000000000000000000008000000000000000000000000000000000000000000000000000000001000000000000000000000004000000000000010000000000000000000000000000000000000800000000000000000000000000000000000000000000000000000000000000100080000000000020000000000000001000000000002000000000000000000000000000000000000000100000000000000000000000000000000000000000000000000000000000000000000000000000000",
      "type": "0x2",
      "transactionHash": "0xe65f9aa96c86721cb0f2839a590e33d1b6df668fe094a92a59f9e6308c3de987",
      "transactionIndex": "0xe3",
      "blockHash": "0x9708746bcfd86873a7454a4ba2fcff908994599f8eacc4d9c0dd011c1036b61b",
      "blockNumber": "0x83e667",
      "gasUsed": "0x86fe",
      "effectiveGasPrice": "0x29f1",
      "from": "0x14d7795a2566cd16eaa1419a26ddb643ce523655",
      "to": "0x779877a7b0d9e8603169ddbd7836e478b4624789",
      "contractAddress": null
    }
  ],
  "libraries": [],
  "pending": [],
  "returns": {},
  "timestamp": 1751075486,
  "chain": 11155111,
  "commit": "2ffbf59"
}