{
  "transactions": [
    {
      "hash": "0x07a78eb8c87e9116fd7a91a49f72408249e30b6334069555f632181b8c00bde5",
      "transactionType": "CALL",
      "contractName": null,
      "contractAddress": "0x5488bf397b074d8efee58f315c0a2f793fcced75",
      "function": "addProtocol(uint64,string,address)",
      "arguments": [
        "11155111",
        "AAVEV3",
        "0xB361aB7b925c8F094F16407702d6fD275534d981"
      ],
      "transaction": {
        "from": "0x14d7795a2566cd16eaa1419a26ddb643ce523655",
        "to": "0x5488bf397b074d8efee58f315c0a2f793fcced75",
        "gas": "0x1a2c1",
        "value": "0x0",
        "input": "0xd27326190000000000000000000000000000000000000000000000000000000000aa36a70000000000000000000000000000000000000000000000000000000000000060000000000000000000000000b361ab7b925c8f094f16407702d6fd275534d98100000000000000000000000000000000000000000000000000000000000000064141564556330000000000000000000000000000000000000000000000000000",
        "nonce": "0xa3",
        "chainId": "0xaa36a7"
      },
      "additionalContracts": [],
      "isFixedGasLimit": false
    },
    {
      "hash": "0xc03f8cbfba0eb2db85ffc4cb932db856084a7c53a27b3104f428f34830f5d845",
      "transactionType": "CALL",
      "contractName": null,
      "contractAddress": "0x5488bf397b074d8efee58f315c0a2f793fcced75",
      "function": "addSupportedChainId(uint64,address)",
      "arguments": [
        "43113",
        "0xF6D757241B1BBf59e9fB0e194E115c9F1665A8C7"
      ],
      "transaction": {
        "from": "0x14d7795a2566cd16eaa1419a26ddb643ce523655",
        "to": "0x5488bf397b074d8efee58f315c0a2f793fcced75",
        "gas": "0xfd9d",
        "value": "0x0",
        "input": "0xf8d7e75a000000000000000000000000000000000000000000000000000000000000a869000000000000000000000000f6d757241b1bbf59e9fb0e194e115c9f1665a8c7",
        "nonce": "0xa4",
        "chainId": "0xaa36a7"
      },
      "additionalContracts": [],
      "isFixedGasLimit": false
    },
    {
      "hash": "0x934db454e7fc3173266db96ef4ea5767787543b1f5b9186aa095adb3dd944ea2",
      "transactionType": "CALL",
      "contractName": null,
      "contractAddress": "0x5488bf397b074d8efee58f315c0a2f793fcced75",
      "function": "addProtocol(uint64,string,address)",
      "arguments": [
        "43113",
        "AAVEV3_FUJI",
        "0x3cfc9AA161e825F2878Fa8B46AaC72Ae32673FfA"
      ],
      "transaction": {
        "from": "0x14d7795a2566cd16eaa1419a26ddb643ce523655",
        "to": "0x5488bf397b074d8efee58f315c0a2f793fcced75",
        "gas": "0x21d5b",
        "value": "0x0",
        "input": "0xd2732619000000000000000000000000000000000000000000000000000000000000a86900000000000000000000000000000000000000000000000000000000000000600000000000000000000000003cfc9aa161e825f2878fa8b46aac72ae32673ffa000000000000000000000000000000000000000000000000000000000000000b4141564556335f46554a49000000000000000000000000000000000000000000",
        "nonce": "0xa5",
        "chainId": "0xaa36a7"
      },
      "additionalContracts": [],
      "isFixedGasLimit": false
    }
  ],
  "receipts": [
    {
      "status": "0x1",
      "cumulativeGasUsed": "0x13b655b",
      "logs": [],
      "logsBloom": "0x00000000000000000000000000000000000000000000000000000000000000000000000000000000000000000000000000000000000000000000000000000000000000000000000000000000000000000000000000000000000000000000000000000000000000000000000000000000000000000000000000000000000000000000000000000000000000000000000000000000000000000000000000000000000000000000000000000000000000000000000000000000000000000000000000000000000000000000000000000000000000000000000000000000000000000000000000000000000000000000000000000000000000000000000000000000",
      "type": "0x2",
      "transactionHash": "0x07a78eb8c87e9116fd7a91a49f72408249e30b6334069555f632181b8c00bde5",
      "transactionIndex": "0x95",
      "blockHash": "0x3a74a4ab585b32212a4c1b87a00403fdb99581fa603c161ddcab13bba5ced5fc",
      "blockNumber": "0x83de0e",
      "gasUsed": "0x12f2d",
      "effectiveGasPrice": "0x147a01f",
      "from": "0x14d7795a2566cd16eaa1419a26ddb643ce523655",
      "to": "0x5488bf397b074d8efee58f315c0a2f793fcced75",
      "contractAddress": null
    },
    {
      "status": "0x1",
      "cumulativeGasUsed": "0x13c1cf9",
      "logs": [],
      "logsBloom": "0x00000000000000000000000000000000000000000000000000000000000000000000000000000000000000000000000000000000000000000000000000000000000000000000000000000000000000000000000000000000000000000000000000000000000000000000000000000000000000000000000000000000000000000000000000000000000000000000000000000000000000000000000000000000000000000000000000000000000000000000000000000000000000000000000000000000000000000000000000000000000000000000000000000000000000000000000000000000000000000000000000000000000000000000000000000000",
      "type": "0x2",
      "transactionHash": "0xc03f8cbfba0eb2db85ffc4cb932db856084a7c53a27b3104f428f34830f5d845",
      "transactionIndex": "0x96",
      "blockHash": "0x3a74a4ab585b32212a4c1b87a00403fdb99581fa603c161ddcab13bba5ced5fc",
      "blockNumber": "0x83de0e",
      "gasUsed": "0xb79e",
      "effectiveGasPrice": "0x147a01f",
      "from": "0x14d7795a2566cd16eaa1419a26ddb643ce523655",
      "to": "0x5488bf397b074d8efee58f315c0a2f793fcced75",
      "contractAddress": null
    },
    {
      "status": "0x1",
      "cumulativeGasUsed": "0x13d8f22",
      "logs": [],
      "logsBloom": "0x00000000000000000000000000000000000000000000000000000000000000000000000000000000000000000000000000000000000000000000000000000000000000000000000000000000000000000000000000000000000000000000000000000000000000000000000000000000000000000000000000000000000000000000000000000000000000000000000000000000000000000000000000000000000000000000000000000000000000000000000000000000000000000000000000000000000000000000000000000000000000000000000000000000000000000000000000000000000000000000000000000000000000000000000000000000",
      "type": "0x2",
      "transactionHash": "0x934db454e7fc3173266db96ef4ea5767787543b1f5b9186aa095adb3dd944ea2",
      "transactionIndex": "0x97",
      "blockHash": "0x3a74a4ab585b32212a4c1b87a00403fdb99581fa603c161ddcab13bba5ced5fc",
      "blockNumber": "0x83de0e",
      "gasUsed": "0x17229",
      "effectiveGasPrice": "0x147a01f",
      "from": "0x14d7795a2566cd16eaa1419a26ddb643ce523655",
      "to": "0x5488bf397b074d8efee58f315c0a2f793fcced75",
      "contractAddress": null
    }
  ],
  "libraries": [],
  "pending": [],
  "returns": {},
  "timestamp": 1751049828,
  "chain": 11155111,
  "commit": "a92698a"
}