{
  "transactions": [
    {
      "hash": "0xeb77cf242cd4f0f8e3a58b6f3affa0f49016d778923888314f78d179b6e4071b",
      "transactionType": "CALL",
      "contractName": null,
      "contractAddress": "0x5488bf397b074d8efee58f315c0a2f793fcced75",
      "function": "addSupportedChainId(uint64,address)",
      "arguments": [
        "11155111",
        "0x82DCF4603a7f24aa6633B821fFC51032Cee21063"
      ],
      "transaction": {
        "from": "0x14d7795a2566cd16eaa1419a26ddb643ce523655",
        "to": "0x5488bf397b074d8efee58f315c0a2f793fcced75",
        "gas": "0x10c9b",
        "value": "0x0",
        "input": "0xf8d7e75a0000000000000000000000000000000000000000000000000000000000aa36a700000000000000000000000082dcf4603a7f24aa6633b821ffc51032cee21063",
        "nonce": "0x4b",
        "chainId": "0xaa36a7"
      },
      "additionalContracts": [],
      "isFixedGasLimit": false
    }
  ],
  "receipts": [
    {
      "status": "0x1",
      "cumulativeGasUsed": "0x2dbb11f",
      "logs": [],
      "logsBloom": "0x00000000000000000000000000000000000000000000000000000000000000000000000000000000000000000000000000000000000000000000000000000000000000000000000000000000000000000000000000000000000000000000000000000000000000000000000000000000000000000000000000000000000000000000000000000000000000000000000000000000000000000000000000000000000000000000000000000000000000000000000000000000000000000000000000000000000000000000000000000000000000000000000000000000000000000000000000000000000000000000000000000000000000000000000000000000",
      "type": "0x2",
      "transactionHash": "0xeb77cf242cd4f0f8e3a58b6f3affa0f49016d778923888314f78d179b6e4071b",
      "transactionIndex": "0xea",
      "blockHash": "0x49024c5fad7fc00df6f69fa5b461a5204ac37f82057c171a4f8b42366fa7fc3b",
      "blockNumber": "0x837d87",
      "gasUsed": "0xb7aa",
      "effectiveGasPrice": "0x3aaf93",
      "from": "0x14d7795a2566cd16eaa1419a26ddb643ce523655",
      "to": "0x5488bf397b074d8efee58f315c0a2f793fcced75",
      "contractAddress": null
    }
  ],
  "libraries": [],
  "pending": [],
  "returns": {},
  "timestamp": 1750751138,
  "chain": 11155111,
  "commit": "2bca086"
}