{
  "transactions": [
    {
      "hash": "0xd72a793be0d802809e6dc43da3ad8b2699754c8c0ef33797b162653a7e0e1a20",
      "transactionType": "CALL",
      "contractName": null,
      "contractAddress": "0x5488bf397b074d8efee58f315c0a2f793fcced75",
      "function": "addProtocol(uint64,string,address)",
      "arguments": [
        "11155111",
        "AAVEV3",
        "0xB361aB7b925c8F094F16407702d6fD275534d981"
      ],
      "transaction": {
        "from": "0x14d7795a2566cd16eaa1419a26ddb643ce523655",
        "to": "0x5488bf397b074d8efee58f315c0a2f793fcced75",
        "gas": "0x21d15",
        "value": "0x0",
        "input": "0xd27326190000000000000000000000000000000000000000000000000000000000aa36a70000000000000000000000000000000000000000000000000000000000000060000000000000000000000000b361ab7b925c8f094f16407702d6fd275534d98100000000000000000000000000000000000000000000000000000000000000064141564556330000000000000000000000000000000000000000000000000000",
        "nonce": "0x4c",
        "chainId": "0xaa36a7"
      },
      "additionalContracts": [],
      "isFixedGasLimit": false
    }
  ],
  "receipts": [
    {
      "status": "0x1",
      "cumulativeGasUsed": "0x130e575",
      "logs": [],
      "logsBloom": "0x00000000000000000000000000000000000000000000000000000000000000000000000000000000000000000000000000000000000000000000000000000000000000000000000000000000000000000000000000000000000000000000000000000000000000000000000000000000000000000000000000000000000000000000000000000000000000000000000000000000000000000000000000000000000000000000000000000000000000000000000000000000000000000000000000000000000000000000000000000000000000000000000000000000000000000000000000000000000000000000000000000000000000000000000000000000",
      "type": "0x2",
      "transactionHash": "0xd72a793be0d802809e6dc43da3ad8b2699754c8c0ef33797b162653a7e0e1a20",
      "transactionIndex": "0x97",
      "blockHash": "0xfd5a4dd8eb9cd03b2ee3a6fb6d49fe767419d29e331617944dd702d60e5627c1",
      "blockNumber": "0x837d91",
      "gasUsed": "0x171f9",
      "effectiveGasPrice": "0x3b01ca",
      "from": "0x14d7795a2566cd16eaa1419a26ddb643ce523655",
      "to": "0x5488bf397b074d8efee58f315c0a2f793fcced75",
      "contractAddress": null
    }
  ],
  "libraries": [],
  "pending": [],
  "returns": {},
  "timestamp": 1750751256,
  "chain": 11155111,
  "commit": "2bca086"
}