{
  "transactions": [
    {
      "hash": "0x33902035fb1fbeae31a10ff14dcdb3de7146e448855b919ea1271bcee2a4c0ed",
      "transactionType": "CALL",
      "contractName": null,
      "contractAddress": "0x224af5c393f5456e57555951e8a8f32fd27f21c2",
      "function": "removeSupportedChainId(uint64)",
      "arguments": [
        "43113"
      ],
      "transaction": {
        "from": "0x14d7795a2566cd16eaa1419a26ddb643ce523655",
        "to": "0x224af5c393f5456e57555951e8a8f32fd27f21c2",
        "gas": "0x80bd",
        "value": "0x0",
        "input": "0x08618de0000000000000000000000000000000000000000000000000000000000000a869",
        "nonce": "0x38",
        "chainId": "0xaa36a7"
      },
      "additionalContracts": [],
      "isFixedGasLimit": false
    },
    {
      "hash": "0xa2007e003fdc3adfa39562219604953998d98f33b0d5e7272cc552c4463293e3",
      "transactionType": "CALL",
      "contractName": null,
      "contractAddress": "0x224af5c393f5456e57555951e8a8f32fd27f21c2",
      "function": "addSupportedChainId(uint64,address)",
      "arguments": [
        "43113",
        "0xB113bBd621639C3547a068391D3B025361DC1f23"
      ],
      "transaction": {
        "from": "0x14d7795a2566cd16eaa1419a26ddb643ce523655",
        "to": "0x224af5c393f5456e57555951e8a8f32fd27f21c2",
        "gas": "0xfd25",
        "value": "0x0",
        "input": "0xf8d7e75a000000000000000000000000000000000000000000000000000000000000a869000000000000000000000000b113bbd621639c3547a068391d3b025361dc1f23",
        "nonce": "0x39",
        "chainId": "0xaa36a7"
      },
      "additionalContracts": [],
      "isFixedGasLimit": false
    }
  ],
  "receipts": [
    {
      "status": "0x1",
      "cumulativeGasUsed": "0x1294ce9",
      "logs": [],
      "logsBloom": "0x00000000000000000000000000000000000000000000000000000000000000000000000000000000000000000000000000000000000000000000000000000000000000000000000000000000000000000000000000000000000000000000000000000000000000000000000000000000000000000000000000000000000000000000000000000000000000000000000000000000000000000000000000000000000000000000000000000000000000000000000000000000000000000000000000000000000000000000000000000000000000000000000000000000000000000000000000000000000000000000000000000000000000000000000000000000",
      "type": "0x2",
      "transactionHash": "0x33902035fb1fbeae31a10ff14dcdb3de7146e448855b919ea1271bcee2a4c0ed",
      "transactionIndex": "0xd6",
      "blockHash": "0x992daa06a3c940701f4924679a91e9877bee9bdc0b6978ca667f6446b87870dc",
      "blockNumber": "0x837b4e",
      "gasUsed": "0x5d35",
      "effectiveGasPrice": "0x9c590",
      "from": "0x14d7795a2566cd16eaa1419a26ddb643ce523655",
      "to": "0x224af5c393f5456e57555951e8a8f32fd27f21c2",
      "contractAddress": null
    },
    {
      "status": "0x1",
      "cumulativeGasUsed": "0x12a042f",
      "logs": [],
      "logsBloom": "0x00000000000000000000000000000000000000000000000000000000000000000000000000000000000000000000000000000000000000000000000000000000000000000000000000000000000000000000000000000000000000000000000000000000000000000000000000000000000000000000000000000000000000000000000000000000000000000000000000000000000000000000000000000000000000000000000000000000000000000000000000000000000000000000000000000000000000000000000000000000000000000000000000000000000000000000000000000000000000000000000000000000000000000000000000000000",
      "type": "0x2",
      "transactionHash": "0xa2007e003fdc3adfa39562219604953998d98f33b0d5e7272cc552c4463293e3",
      "transactionIndex": "0xd7",
      "blockHash": "0x992daa06a3c940701f4924679a91e9877bee9bdc0b6978ca667f6446b87870dc",
      "blockNumber": "0x837b4e",
      "gasUsed": "0xb746",
      "effectiveGasPrice": "0x9c590",
      "from": "0x14d7795a2566cd16eaa1419a26ddb643ce523655",
      "to": "0x224af5c393f5456e57555951e8a8f32fd27f21c2",
      "contractAddress": null
    }
  ],
  "libraries": [],
  "pending": [],
  "returns": {},
  "timestamp": 1750744297,
  "chain": 11155111,
  "commit": "8b00971"
}