{
  "transactions": [
    {
      "hash": "0x11dd75ebba881e5152a5e4d0604d746ee94597b7b7c1773114d083f656d42ad6",
      "transactionType": "CALL",
      "contractName": "CrossMindVault",
      "contractAddress": "0xd106f14750695e56e78f039da3eaf7136a86dbfa",
      "function": "setStrategyManager(address)",
      "arguments": [
        "0x224AF5c393f5456E57555951e8A8f32fD27F21C2"
      ],
      "transaction": {
        "from": "0x14d7795a2566cd16eaa1419a26ddb643ce523655",
        "to": "0xd106f14750695e56e78f039da3eaf7136a86dbfa",
        "gas": "0xabe7",
        "value": "0x0",
        "input": "0x5c966646000000000000000000000000224af5c393f5456e57555951e8a8f32fd27f21c2",
        "nonce": "0x96",
        "chainId": "0xaa36a7"
      },
      "additionalContracts": [],
      "isFixedGasLimit": false
    }
  ],
  "receipts": [
    {
      "status": "0x1",
      "cumulativeGasUsed": "0x1099cd3",
      "logs": [
        {
          "address": "0xd106f14750695e56e78f039da3eaf7136a86dbfa",
          "topics": [
            "0x95169e42c0fcf2c96d94d59478e3c0a6c9364a02a2821ab833b915d90a51784b",
            "0x000000000000000000000000224af5c393f5456e57555951e8a8f32fd27f21c2"
          ],
          "data": "0x",
          "blockHash": "0xec65423c03fc3c516250fb1da209b62771102e53e81d6024e38ad95635de977c",
          "blockNumber": "0x83dc3d",
          "transactionHash": "0x11dd75ebba881e5152a5e4d0604d746ee94597b7b7c1773114d083f656d42ad6",
          "transactionIndex": "0xcd",
          "logIndex": "0x16d",
          "removed": false
        }
      ],
      "logsBloom": "0x00000000000000000000000000000000000000000000000000000000000000800000040000000000000000000000000000000000001000000000000000000000000000000002000000000000000000000008000000000000000000000000000000000000000000000000000000000000000000000000000000000000000000000000000000000000000000000000000000000000000000000000000000000000000000000000100000000000000000020000000000000000000000000000000000000000000000000000000000000000000000000000000000000000000000000000000000000000000000200000000000000000001000000000000000000000",
      "type": "0x2",
      "transactionHash": "0x11dd75ebba881e5152a5e4d0604d746ee94597b7b7c1773114d083f656d42ad6",
      "transactionIndex": "0xcd",
      "blockHash": "0xec65423c03fc3c516250fb1da209b62771102e53e81d6024e38ad95635de977c",
      "blockNumber": "0x83dc3d",
      "gasUsed": "0x758b",
      "effectiveGasPrice": "0xfef68",
      "from": "0x14d7795a2566cd16eaa1419a26ddb643ce523655",
      "to": "0xd106f14750695e56e78f039da3eaf7136a86dbfa",
      "contractAddress": null
    }
  ],
  "libraries": [],
  "pending": [],
  "returns": {},
  "timestamp": 1751044249,
  "chain": 11155111,
  "commit": "2ffbf59"
}