{
  "transactions": [
    {
      "hash": "0xff0096e818718273dec905193245699b46235408bbc6e2c1e314159d2844373d",
      "transactionType": "CALL",
      "contractName": null,
      "contractAddress": "0x1c7d4b196cb0c7b01d743fbc6116a902379c7238",
      "function": "approve(address,uint256)",
      "arguments": [
        "0x0b030C4fD5a31016D753102a6E939019E9119bb2",
        "10000000"
      ],
      "transaction": {
        "from": "0x14d7795a2566cd16eaa1419a26ddb643ce523655",
        "to": "0x1c7d4b196cb0c7b01d743fbc6116a902379c7238",
        "gas": "0x12b1b",
        "value": "0x0",
        "input": "0x095ea7b30000000000000000000000000b030c4fd5a31016d753102a6e939019e9119bb20000000000000000000000000000000000000000000000000000000000989680",
        "nonce": "0x45",
        "chainId": "0xaa36a7"
      },
      "additionalContracts": [],
      "isFixedGasLimit": false
    },
    {
      "hash": "0x88f0d9b7b5233c5f3ba9ff2dc96b4939d9d12205a8881f17d0a26c54ee3ab47d",
      "transactionType": "CALL",
      "contractName": null,
      "contractAddress": "0x0b030c4fd5a31016d753102a6e939019e9119bb2",
      "function": "deposit(uint256,uint8)",
      "arguments": [
        "10000000",
        "1"
      ],
      "transaction": {
        "from": "0x14d7795a2566cd16eaa1419a26ddb643ce523655",
        "to": "0x0b030c4fd5a31016d753102a6e939019e9119bb2",
        "gas": "0x245f5",
        "value": "0x0",
        "input": "0x654cfdff00000000000000000000000000000000000000000000000000000000009896800000000000000000000000000000000000000000000000000000000000000001",
        "nonce": "0x46",
        "chainId": "0xaa36a7"
      },
      "additionalContracts": [],
      "isFixedGasLimit": false
    }
  ],
  "receipts": [
    {
      "status": "0x1",
      "cumulativeGasUsed": "0x110730e",
      "logs": [
        {
          "address": "0x1c7d4b196cb0c7b01d743fbc6116a902379c7238",
          "topics": [
            "0x8c5be1e5ebec7d5bd14f71427d1e84f3dd0314c0f7b2291e5b200ac8c7c3b925",
            "0x00000000000000000000000014d7795a2566cd16eaa1419a26ddb643ce523655",
            "0x0000000000000000000000000b030c4fd5a31016d753102a6e939019e9119bb2"
          ],
          "data": "0x0000000000000000000000000000000000000000000000000000000000989680",
          "blockHash": "0xc94075ca51cab8e481814afd5058d3aedee04fc7ffbcf5fd17325173f7237cfe",
          "blockNumber": "0x837d47",
          "transactionHash": "0xff0096e818718273dec905193245699b46235408bbc6e2c1e314159d2844373d",
          "transactionIndex": "0x83",
          "logIndex": "0xfc",
          "removed": false
        }
      ],
      "logsBloom": "0x00000000000000000000000000000000000000000000000000000000000200000000000000000000000000000000000000000000000000000000000000200000000000000000000000000000000000000000000000000000000000000000000000000000000000020000000000000004000000004000000000000000000000000000000000100000000000000000000000000000000000000000000000000000020000000000000000000000000100080000000000000000000000000000000000000000000000000000000000000000000000000000000000000000000000000010000000000200000010000000000000000000000000000000000000000000",
      "type": "0x2",
      "transactionHash": "0xff0096e818718273dec905193245699b46235408bbc6e2c1e314159d2844373d",
      "transactionIndex": "0x83",
      "blockHash": "0xc94075ca51cab8e481814afd5058d3aedee04fc7ffbcf5fd17325173f7237cfe",
      "blockNumber": "0x837d47",
      "gasUsed": "0xd88d",
      "effectiveGasPrice": "0x507f55",
      "from": "0x14d7795a2566cd16eaa1419a26ddb643ce523655",
      "to": "0x1c7d4b196cb0c7b01d743fbc6116a902379c7238",
      "contractAddress": null
    },
    {
      "status": "0x1",
      "cumulativeGasUsed": "0x1121862",
      "logs": [
        {
          "address": "0x1c7d4b196cb0c7b01d743fbc6116a902379c7238",
          "topics": [
            "0xddf252ad1be2c89b69c2b068fc378daa952ba7f163c4a11628f55a4df523b3ef",
            "0x00000000000000000000000014d7795a2566cd16eaa1419a26ddb643ce523655",
            "0x0000000000000000000000000b030c4fd5a31016d753102a6e939019e9119bb2"
          ],
          "data": "0x0000000000000000000000000000000000000000000000000000000000989680",
          "blockHash": "0xc94075ca51cab8e481814afd5058d3aedee04fc7ffbcf5fd17325173f7237cfe",
          "blockNumber": "0x837d47",
          "transactionHash": "0x88f0d9b7b5233c5f3ba9ff2dc96b4939d9d12205a8881f17d0a26c54ee3ab47d",
          "transactionIndex": "0x84",
          "logIndex": "0xfd",
          "removed": false
        },
        {
          "address": "0x0b030c4fd5a31016d753102a6e939019e9119bb2",
          "topics": [
            "0xe1fffcc4923d04b559f4d29a8bfc6cda04eb5b0d3c460751c2402c5c5cc9109c",
            "0x00000000000000000000000014d7795a2566cd16eaa1419a26ddb643ce523655"
          ],
          "data": "0x0000000000000000000000000000000000000000000000000000000000989680",
          "blockHash": "0xc94075ca51cab8e481814afd5058d3aedee04fc7ffbcf5fd17325173f7237cfe",
          "blockNumber": "0x837d47",
          "transactionHash": "0x88f0d9b7b5233c5f3ba9ff2dc96b4939d9d12205a8881f17d0a26c54ee3ab47d",
          "transactionIndex": "0x84",
          "logIndex": "0xfe",
          "removed": false
        }
      ],
      "logsBloom": "0x00000000000000000000000000000000000008000000000000000000000200000000000000000000000000000000000000000000000000000000000000000000000000000000000000000008000000000000000000000000000000008000000000000000000000020000000000000004000000004000000000000010000000000000000000100000000000000000000000000001000000000000000000000000000000000000000000000000000100080000000000000000000004000000000000000002000000000000000000000000000000000000000000000000000000000000000000000200000410000000000000000000000000400000000000000000",
      "type": "0x2",
      "transactionHash": "0x88f0d9b7b5233c5f3ba9ff2dc96b4939d9d12205a8881f17d0a26c54ee3ab47d",
      "transactionIndex": "0x84",
      "blockHash": "0xc94075ca51cab8e481814afd5058d3aedee04fc7ffbcf5fd17325173f7237cfe",
      "blockNumber": "0x837d47",
      "gasUsed": "0x1a554",
      "effectiveGasPrice": "0x507f55",
      "from": "0x14d7795a2566cd16eaa1419a26ddb643ce523655",
      "to": "0x0b030c4fd5a31016d753102a6e939019e9119bb2",
      "contractAddress": null
    }
  ],
  "libraries": [],
  "pending": [],
  "returns": {},
  "timestamp": 1750750368,
  "chain": 11155111,
  "commit": "2bca086"
}