{
  "transactions": [
    {
      "hash": "0xa19bc2dfd74171fdc948b392592338bbf160c33f5170f70cd829308e590397d6",
      "transactionType": "CALL",
      "contractName": null,
      "contractAddress": "0x1c7d4b196cb0c7b01d743fbc6116a902379c7238",
      "function": "approve(address,uint256)",
      "arguments": [
        "0xfA205DB4D93006837C0CAb69095bBB7d601c82E6",
        "10000000"
      ],
      "transaction": {
        "from": "0x14d7795a2566cd16eaa1419a26ddb643ce523655",
        "to": "0x1c7d4b196cb0c7b01d743fbc6116a902379c7238",
        "gas": "0x12b1b",
        "value": "0x0",
        "input": "0x095ea7b3000000000000000000000000fa205db4d93006837c0cab69095bbb7d601c82e60000000000000000000000000000000000000000000000000000000000989680",
        "nonce": "0x49",
        "chainId": "0xaa36a7"
      },
      "additionalContracts": [],
      "isFixedGasLimit": false
    },
    {
      "hash": "0xd34c537efddfb0552cc3fa08a817d6a8fc88c1fb98816fc496d2c49fc57b8c39",
      "transactionType": "CALL",
      "contractName": null,
      "contractAddress": "0xfa205db4d93006837c0cab69095bbb7d601c82e6",
      "function": "deposit(uint256,uint8)",
      "arguments": [
        "10000000",
        "1"
      ],
      "transaction": {
        "from": "0x14d7795a2566cd16eaa1419a26ddb643ce523655",
        "to": "0xfa205db4d93006837c0cab69095bbb7d601c82e6",
        "gas": "0x340d9",
        "value": "0x0",
        "input": "0x654cfdff00000000000000000000000000000000000000000000000000000000009896800000000000000000000000000000000000000000000000000000000000000001",
        "nonce": "0x4a",
        "chainId": "0xaa36a7"
      },
      "additionalContracts": [],
      "isFixedGasLimit": false
    }
  ],
  "receipts": [
    {
      "status": "0x1",
      "cumulativeGasUsed": "0x15597be",
      "logs": [
        {
          "address": "0x1c7d4b196cb0c7b01d743fbc6116a902379c7238",
          "topics": [
            "0x8c5be1e5ebec7d5bd14f71427d1e84f3dd0314c0f7b2291e5b200ac8c7c3b925",
            "0x00000000000000000000000014d7795a2566cd16eaa1419a26ddb643ce523655",
            "0x000000000000000000000000fa205db4d93006837c0cab69095bbb7d601c82e6"
          ],
          "data": "0x0000000000000000000000000000000000000000000000000000000000989680",
          "blockHash": "0x49478aea02fec17c46b969c999949ed2ac70f6518aa729777a7e6de07eccca96",
          "blockNumber": "0x837d77",
          "transactionHash": "0xa19bc2dfd74171fdc948b392592338bbf160c33f5170f70cd829308e590397d6",
          "transactionIndex": "0x9e",
          "logIndex": "0x10c",
          "removed": false
        }
      ],
      "logsBloom": "0x00000000000000000000000000000000000000000000000000000000000200000000000000000000000000000000000000000000000000000000000000200000000000000000000000000000000000000000000000000000000000000000000000000000000000000000000000000000000000004080000000000000000000000000000000100000000000000000000000000000000000000000000000000000020000000000010000000000000100080000000000000000000000000000000000000000000200000000000000000000000000000000000000000000000000000010000000000000000010000000000000000000000000000000000000000000",
      "type": "0x2",
      "transactionHash": "0xa19bc2dfd74171fdc948b392592338bbf160c33f5170f70cd829308e590397d6",
      "transactionIndex": "0x9e",
      "blockHash": "0x49478aea02fec17c46b969c999949ed2ac70f6518aa729777a7e6de07eccca96",
      "blockNumber": "0x837d77",
      "gasUsed": "0xd88d",
      "effectiveGasPrice": "0x4c97a2",
      "from": "0x14d7795a2566cd16eaa1419a26ddb643ce523655",
      "to": "0x1c7d4b196cb0c7b01d743fbc6116a902379c7238",
      "contractAddress": null
    },
    {
      "status": "0x1",
      "cumulativeGasUsed": "0x1299572",
      "logs": [
        {
          "address": "0x1c7d4b196cb0c7b01d743fbc6116a902379c7238",
          "topics": [
            "0xddf252ad1be2c89b69c2b068fc378daa952ba7f163c4a11628f55a4df523b3ef",
            "0x00000000000000000000000014d7795a2566cd16eaa1419a26ddb643ce523655",
            "0x000000000000000000000000fa205db4d93006837c0cab69095bbb7d601c82e6"
          ],
          "data": "0x0000000000000000000000000000000000000000000000000000000000989680",
          "blockHash": "0xa41b0e6c2f540b00ea53d4e8dd7458f2235652d98301cf7603b40ea20fe2b955",
          "blockNumber": "0x837d78",
          "transactionHash": "0xd34c537efddfb0552cc3fa08a817d6a8fc88c1fb98816fc496d2c49fc57b8c39",
          "transactionIndex": "0x7e",
          "logIndex": "0xbd",
          "removed": false
        },
        {
          "address": "0xfa205db4d93006837c0cab69095bbb7d601c82e6",
          "topics": [
            "0xe1fffcc4923d04b559f4d29a8bfc6cda04eb5b0d3c460751c2402c5c5cc9109c",
            "0x00000000000000000000000014d7795a2566cd16eaa1419a26ddb643ce523655"
          ],
          "data": "0x0000000000000000000000000000000000000000000000000000000000989680",
          "blockHash": "0xa41b0e6c2f540b00ea53d4e8dd7458f2235652d98301cf7603b40ea20fe2b955",
          "blockNumber": "0x837d78",
          "transactionHash": "0xd34c537efddfb0552cc3fa08a817d6a8fc88c1fb98816fc496d2c49fc57b8c39",
          "transactionIndex": "0x7e",
          "logIndex": "0xbe",
          "removed": false
        }
      ],
      "logsBloom": "0x00000000000000000000000000000000000000000000000000000000000200000000000000000000000000000000400000000000000000000000000000000000000000000000000000000008000000000000000000000000000000008000000000000000000000000000000000000000000000004080000000000010000000000000000000100000000000000000000000000001000000000000000000000000000000000000010004000000000100080000000000000000000000000000000000000002000200000000000000000000000000000000000000000000000000000000040000000000000010000000000000000000000000400000000000000000",
      "type": "0x2",
      "transactionHash": "0xd34c537efddfb0552cc3fa08a817d6a8fc88c1fb98816fc496d2c49fc57b8c39",
      "transactionIndex": "0x7e",
      "blockHash": "0xa41b0e6c2f540b00ea53d4e8dd7458f2235652d98301cf7603b40ea20fe2b955",
      "blockNumber": "0x837d78",
      "gasUsed": "0x25af8",
      "effectiveGasPrice": "0x4c5552",
      "from": "0x14d7795a2566cd16eaa1419a26ddb643ce523655",
      "to": "0xfa205db4d93006837c0cab69095bbb7d601c82e6",
      "contractAddress": null
    }
  ],
  "libraries": [],
  "pending": [],
  "returns": {},
  "timestamp": 1750750957,
  "chain": 11155111,
  "commit": "2bca086"
}