{
  "transactions": [
    {
      "hash": "0x9eb1b9369f24a60fedb3424770911f88c425cdc7cab460826ec6813dc3be2b41",
      "transactionType": "CALL",
      "contractName": null,
      "contractAddress": "0x1c7d4b196cb0c7b01d743fbc6116a902379c7238",
      "function": "approve(address,uint256)",
      "arguments": [
        "0x0b030C4fD5a31016D753102a6E939019E9119bb2",
        "10000000"
      ],
      "transaction": {
        "from": "0x14d7795a2566cd16eaa1419a26ddb643ce523655",
        "to": "0x1c7d4b196cb0c7b01d743fbc6116a902379c7238",
        "gas": "0x12b1b",
        "value": "0x0",
        "input": "0x095ea7b30000000000000000000000000b030c4fd5a31016d753102a6e939019e9119bb20000000000000000000000000000000000000000000000000000000000989680",
        "nonce": "0x47",
        "chainId": "0xaa36a7"
      },
      "additionalContracts": [],
      "isFixedGasLimit": false
    },
    {
      "hash": "0xcb8999e6793678b8d41a0dd6a13f07e0a0b479c164fa2648276d0a37ce467859",
      "transactionType": "CALL",
      "contractName": null,
      "contractAddress": "0x0b030c4fd5a31016d753102a6e939019e9119bb2",
      "function": "deposit(uint256,uint8)",
      "arguments": [
        "10000000",
        "1"
      ],
      "transaction": {
        "from": "0x14d7795a2566cd16eaa1419a26ddb643ce523655",
        "to": "0x0b030c4fd5a31016d753102a6e939019e9119bb2",
        "gas": "0x22c0f",
        "value": "0x0",
        "input": "0x654cfdff00000000000000000000000000000000000000000000000000000000009896800000000000000000000000000000000000000000000000000000000000000001",
        "nonce": "0x48",
        "chainId": "0xaa36a7"
      },
      "additionalContracts": [],
      "isFixedGasLimit": false
    }
  ],
  "receipts": [
    {
      "status": "0x1",
      "cumulativeGasUsed": "0x190c7df",
      "logs": [
        {
          "address": "0x1c7d4b196cb0c7b01d743fbc6116a902379c7238",
          "topics": [
            "0x8c5be1e5ebec7d5bd14f71427d1e84f3dd0314c0f7b2291e5b200ac8c7c3b925",
            "0x00000000000000000000000014d7795a2566cd16eaa1419a26ddb643ce523655",
            "0x0000000000000000000000000b030c4fd5a31016d753102a6e939019e9119bb2"
          ],
          "data": "0x0000000000000000000000000000000000000000000000000000000000989680",
          "blockHash": "0x65f64096267ef91212fb7e9b893102222e19cc462911c9e9808d955bd62e1dfa",
          "blockNumber": "0x837d5a",
          "transactionHash": "0x9eb1b9369f24a60fedb3424770911f88c425cdc7cab460826ec6813dc3be2b41",
          "transactionIndex": "0x84",
          "logIndex": "0x10d",
          "removed": false
        }
      ],
      "logsBloom": "0x00000000000000000000000000000000000000000000000000000000000200000000000000000000000000000000000000000000000000000000000000200000000000000000000000000000000000000000000000000000000000000000000000000000000000020000000000000004000000004000000000000000000000000000000000100000000000000000000000000000000000000000000000000000020000000000000000000000000100080000000000000000000000000000000000000000000000000000000000000000000000000000000000000000000000000010000000000200000010000000000000000000000000000000000000000000",
      "type": "0x2",
      "transactionHash": "0x9eb1b9369f24a60fedb3424770911f88c425cdc7cab460826ec6813dc3be2b41",
      "transactionIndex": "0x84",
      "blockHash": "0x65f64096267ef91212fb7e9b893102222e19cc462911c9e9808d955bd62e1dfa",
      "blockNumber": "0x837d5a",
      "gasUsed": "0xd88d",
      "effectiveGasPrice": "0x65011d",
      "from": "0x14d7795a2566cd16eaa1419a26ddb643ce523655",
      "to": "0x1c7d4b196cb0c7b01d743fbc6116a902379c7238",
      "contractAddress": null
    },
    {
      "status": "0x1",
      "cumulativeGasUsed": "0x137d615",
      "logs": [
        {
          "address": "0x1c7d4b196cb0c7b01d743fbc6116a902379c7238",
          "topics": [
            "0xddf252ad1be2c89b69c2b068fc378daa952ba7f163c4a11628f55a4df523b3ef",
            "0x00000000000000000000000014d7795a2566cd16eaa1419a26ddb643ce523655",
            "0x0000000000000000000000000b030c4fd5a31016d753102a6e939019e9119bb2"
          ],
          "data": "0x0000000000000000000000000000000000000000000000000000000000989680",
          "blockHash": "0xcc6ce386b42249250d980c938d2caa297addf8f125ed35f35066fcd6d2480e4b",
          "blockNumber": "0x837d5b",
          "transactionHash": "0xcb8999e6793678b8d41a0dd6a13f07e0a0b479c164fa2648276d0a37ce467859",
          "transactionIndex": "0x7e",
          "logIndex": "0xf3",
          "removed": false
        },
        {
          "address": "0x0b030c4fd5a31016d753102a6e939019e9119bb2",
          "topics": [
            "0xe1fffcc4923d04b559f4d29a8bfc6cda04eb5b0d3c460751c2402c5c5cc9109c",
            "0x00000000000000000000000014d7795a2566cd16eaa1419a26ddb643ce523655"
          ],
          "data": "0x0000000000000000000000000000000000000000000000000000000000989680",
          "blockHash": "0xcc6ce386b42249250d980c938d2caa297addf8f125ed35f35066fcd6d2480e4b",
          "blockNumber": "0x837d5b",
          "transactionHash": "0xcb8999e6793678b8d41a0dd6a13f07e0a0b479c164fa2648276d0a37ce467859",
          "transactionIndex": "0x7e",
          "logIndex": "0xf4",
          "removed": false
        }
      ],
      "logsBloom": "0x00000000000000000000000000000000000008000000000000000000000200000000000000000000000000000000000000000000000000000000000000000000000000000000000000000008000000000000000000000000000000008000000000000000000000020000000000000004000000004000000000000010000000000000000000100000000000000000000000000001000000000000000000000000000000000000000000000000000100080000000000000000000004000000000000000002000000000000000000000000000000000000000000000000000000000000000000000200000410000000000000000000000000400000000000000000",
      "type": "0x2",
      "transactionHash": "0xcb8999e6793678b8d41a0dd6a13f07e0a0b479c164fa2648276d0a37ce467859",
      "transactionIndex": "0x7e",
      "blockHash": "0xcc6ce386b42249250d980c938d2caa297addf8f125ed35f35066fcd6d2480e4b",
      "blockNumber": "0x837d5b",
      "gasUsed": "0x19294",
      "effectiveGasPrice": "0x654a1c",
      "from": "0x14d7795a2566cd16eaa1419a26ddb643ce523655",
      "to": "0x0b030c4fd5a31016d753102a6e939019e9119bb2",
      "contractAddress": null
    }
  ],
  "libraries": [],
  "pending": [],
  "returns": {},
  "timestamp": 1750750609,
  "chain": 11155111,
  "commit": "2bca086"
}