{
  "transactions": [
    {
      "hash": "0xd8636e26c118135e1fa9bebe5e130a0ef2044a5f4319d71fa78e06ab55ed1daf",
      "transactionType": "CALL",
      "contractName": null,
      "contractAddress": "0x1c7d4b196cb0c7b01d743fbc6116a902379c7238",
      "function": "approve(address,uint256)",
      "arguments": [
        "0x0b030C4fD5a31016D753102a6E939019E9119bb2",
        "10000000"
      ],
      "transaction": {
        "from": "0x14d7795a2566cd16eaa1419a26ddb643ce523655",
        "to": "0x1c7d4b196cb0c7b01d743fbc6116a902379c7238",
        "gas": "0xcb04",
        "value": "0x0",
        "input": "0x095ea7b30000000000000000000000000b030c4fd5a31016d753102a6e939019e9119bb20000000000000000000000000000000000000000000000000000000000989680",
        "nonce": "0x12",
        "chainId": "0xaa36a7"
      },
      "additionalContracts": [],
      "isFixedGasLimit": false
    },
    {
      "hash": "0xbd4d87c7dcfdcbd75fc96efde3282434a2b5a65268b9b899b11c9fb0357a5f3b",
      "transactionType": "CALL",
      "contractName": null,
      "contractAddress": "0x0b030c4fd5a31016d753102a6e939019e9119bb2",
      "function": "deposit(uint256,uint8)",
      "arguments": [
        "10000000",
        "1"
      ],
      "transaction": {
        "from": "0x14d7795a2566cd16eaa1419a26ddb643ce523655",
        "to": "0x0b030c4fd5a31016d753102a6e939019e9119bb2",
        "gas": "0x35abf",
        "value": "0x0",
        "input": "0x654cfdff00000000000000000000000000000000000000000000000000000000009896800000000000000000000000000000000000000000000000000000000000000001",
        "nonce": "0x13",
        "chainId": "0xaa36a7"
      },
      "additionalContracts": [],
      "isFixedGasLimit": false
    }
  ],
  "receipts": [
    {
      "status": "0x1",
      "cumulativeGasUsed": "0x118fa1f",
      "logs": [
        {
          "address": "0x1c7d4b196cb0c7b01d743fbc6116a902379c7238",
          "topics": [
            "0x8c5be1e5ebec7d5bd14f71427d1e84f3dd0314c0f7b2291e5b200ac8c7c3b925",
            "0x00000000000000000000000014d7795a2566cd16eaa1419a26ddb643ce523655",
            "0x0000000000000000000000000b030c4fd5a31016d753102a6e939019e9119bb2"
          ],
          "data": "0x0000000000000000000000000000000000000000000000000000000000989680",
          "blockHash": "0xdba54de2fcb1e1f1ba561ea2ef598865aceafab508290a358f58eb0510bcd88c",
          "blockNumber": "0x836b21",
          "transactionHash": "0xd8636e26c118135e1fa9bebe5e130a0ef2044a5f4319d71fa78e06ab55ed1daf",
          "transactionIndex": "0x96",
          "logIndex": "0xd1",
          "removed": false
        }
      ],
      "logsBloom": "0x00000000000000000000000000000000000000000000000000000000000200000000000000000000000000000000000000000000000000000000000000200000000000000000000000000000000000000000000000000000000000000000000000000000000000020000000000000004000000004000000000000000000000000000000000100000000000000000000000000000000000000000000000000000020000000000000000000000000100080000000000000000000000000000000000000000000000000000000000000000000000000000000000000000000000000010000000000200000010000000000000000000000000000000000000000000",
      "type": "0x2",
      "transactionHash": "0xd8636e26c118135e1fa9bebe5e130a0ef2044a5f4319d71fa78e06ab55ed1daf",
      "transactionIndex": "0x96",
      "blockHash": "0xdba54de2fcb1e1f1ba561ea2ef598865aceafab508290a358f58eb0510bcd88c",
      "blockNumber": "0x836b21",
      "gasUsed": "0x8ad1",
      "effectiveGasPrice": "0x1b96a521",
      "from": "0x14d7795a2566cd16eaa1419a26ddb643ce523655",
      "to": "0x1c7d4b196cb0c7b01d743fbc6116a902379c7238",
      "contractAddress": null
    },
    {
      "status": "0x1",
      "cumulativeGasUsed": "0x11b67d7",
      "logs": [
        {
          "address": "0x1c7d4b196cb0c7b01d743fbc6116a902379c7238",
          "topics": [
            "0xddf252ad1be2c89b69c2b068fc378daa952ba7f163c4a11628f55a4df523b3ef",
            "0x00000000000000000000000014d7795a2566cd16eaa1419a26ddb643ce523655",
            "0x0000000000000000000000000b030c4fd5a31016d753102a6e939019e9119bb2"
          ],
          "data": "0x0000000000000000000000000000000000000000000000000000000000989680",
          "blockHash": "0xdba54de2fcb1e1f1ba561ea2ef598865aceafab508290a358f58eb0510bcd88c",
          "blockNumber": "0x836b21",
          "transactionHash": "0xbd4d87c7dcfdcbd75fc96efde3282434a2b5a65268b9b899b11c9fb0357a5f3b",
          "transactionIndex": "0x97",
          "logIndex": "0xd2",
          "removed": false
        },
        {
          "address": "0x0b030c4fd5a31016d753102a6e939019e9119bb2",
          "topics": [
            "0xe1fffcc4923d04b559f4d29a8bfc6cda04eb5b0d3c460751c2402c5c5cc9109c",
            "0x00000000000000000000000014d7795a2566cd16eaa1419a26ddb643ce523655"
          ],
          "data": "0x0000000000000000000000000000000000000000000000000000000000989680",
          "blockHash": "0xdba54de2fcb1e1f1ba561ea2ef598865aceafab508290a358f58eb0510bcd88c",
          "blockNumber": "0x836b21",
          "transactionHash": "0xbd4d87c7dcfdcbd75fc96efde3282434a2b5a65268b9b899b11c9fb0357a5f3b",
          "transactionIndex": "0x97",
          "logIndex": "0xd3",
          "removed": false
        }
      ],
      "logsBloom": "0x00000000000000000000000000000000000008000000000000000000000200000000000000000000000000000000000000000000000000000000000000000000000000000000000000000008000000000000000000000000000000008000000000000000000000020000000000000004000000004000000000000010000000000000000000100000000000000000000000000001000000000000000000000000000000000000000000000000000100080000000000000000000004000000000000000002000000000000000000000000000000000000000000000000000000000000000000000200000410000000000000000000000000400000000000000000",
      "type": "0x2",
      "transactionHash": "0xbd4d87c7dcfdcbd75fc96efde3282434a2b5a65268b9b899b11c9fb0357a5f3b",
      "transactionIndex": "0x97",
      "blockHash": "0xdba54de2fcb1e1f1ba561ea2ef598865aceafab508290a358f58eb0510bcd88c",
      "blockNumber": "0x836b21",
      "gasUsed": "0x26db8",
      "effectiveGasPrice": "0x1b96a521",
      "from": "0x14d7795a2566cd16eaa1419a26ddb643ce523655",
      "to": "0x0b030c4fd5a31016d753102a6e939019e9119bb2",
      "contractAddress": null
    }
  ],
  "libraries": [],
  "pending": [],
  "returns": {},
  "timestamp": 1750694546,
  "chain": 11155111,
  "commit": "df59fe2"
}