{
  "transactions": [
    {
      "hash": "0xba735b0cad61559d06f246f7bd6b836b691f1ee504fb3bfcb44f34fe37e05dab",
      "transactionType": "CALL",
      "contractName": null,
      "contractAddress": "0x436b630550186555865f969b89803a76d18fab2b",
      "function": "addProtocol(uint64,string,address)",
      "arguments": [
        "12532609583862916517",
        "AaveV3",
        "0xB361aB7b925c8F094F16407702d6fD275534d981"
      ],
      "transaction": {
        "from": "0x14d7795a2566cd16eaa1419a26ddb643ce523655",
        "to": "0x436b630550186555865f969b89803a76d18fab2b",
        "gas": "0x1ff58",
        "value": "0x0",
        "input": "0xd2732619000000000000000000000000000000000000000000000000adecc60412ce25a50000000000000000000000000000000000000000000000000000000000000060000000000000000000000000b361ab7b925c8f094f16407702d6fd275534d98100000000000000000000000000000000000000000000000000000000000000064161766556330000000000000000000000000000000000000000000000000000",
        "nonce": "0xab",
        "chainId": "0xaa36a7"
      },
      "additionalContracts": [],
      "isFixedGasLimit": false
    }
  ],
  "receipts": [
    {
      "status": "0x1",
      "cumulativeGasUsed": "0xefe879",
      "logs": [],
      "logsBloom": "0x00000000000000000000000000000000000000000000000000000000000000000000000000000000000000000000000000000000000000000000000000000000000000000000000000000000000000000000000000000000000000000000000000000000000000000000000000000000000000000000000000000000000000000000000000000000000000000000000000000000000000000000000000000000000000000000000000000000000000000000000000000000000000000000000000000000000000000000000000000000000000000000000000000000000000000000000000000000000000000000000000000000000000000000000000000000",
      "type": "0x2",
      "transactionHash": "0xba735b0cad61559d06f246f7bd6b836b691f1ee504fb3bfcb44f34fe37e05dab",
      "transactionIndex": "0xa4",
      "blockHash": "0xac18aec6c86f4c0484fdbeb8bf7ee763eba0e65365321c5c9ad29695d636d408",
      "blockNumber": "0x83e382",
      "gasUsed": "0x17235",
      "effectiveGasPrice": "0xf424f",
      "from": "0x14d7795a2566cd16eaa1419a26ddb643ce523655",
      "to": "0x436b630550186555865f969b89803a76d18fab2b",
      "contractAddress": null
    }
  ],
  "libraries": [],
  "pending": [],
  "returns": {},
  "timestamp": 1751066593,
  "chain": 11155111,
  "commit": "2ffbf59"
}