{
  "transactions": [
    {
      "hash": "0x4a2d1a0bf2a03ace08fffec6c18c958f733fc3fb0ebbfe95516d11e46cd680c8",
      "transactionType": "CALL",
      "contractName": null,
      "contractAddress": "0x224af5c393f5456e57555951e8a8f32fd27f21c2",
      "function": "registerStrategy((uint256,uint8,uint256,(uint64,uint256,(address,uint256)[])[]),uint256)",
      "arguments": [
        "(1, 0, 10000000, [(43113, 10000000, [(0x3cfc9AA161e825F2878Fa8B46AaC72Ae32673FfA, 100)])])",
        "1"
      ],
      "transaction": {
        "from": "0x14d7795a2566cd16eaa1419a26ddb643ce523655",
        "to": "0x224af5c393f5456e57555951e8a8f32fd27f21c2",
        "gas": "0x5aafa",
        "value": "0x0",
        "input": "0x8d450b1c00000000000000000000000000000000000000000000000000000000000000400000000000000000000000000000000000000000000000000000000000000001000000000000000000000000000000000000000000000000000000000000000100000000000000000000000000000000000000000000000000000000000000000000000000000000000000000000000000000000000000000000000000989680000000000000000000000000000000000000000000000000000000000000008000000000000000000000000000000000000000000000000000000000000000010000000000000000000000000000000000000000000000000000000000000020000000000000000000000000000000000000000000000000000000000000a8690000000000000000000000000000000000000000000000000000000000989680000000000000000000000000000000000000000000000000000000000000006000000000000000000000000000000000000000000000000000000000000000010000000000000000000000003cfc9aa161e825f2878fa8b46aac72ae32673ffa0000000000000000000000000000000000000000000000000000000000000064",
        "nonce": "0x95",
        "chainId": "0xaa36a7"
      },
      "additionalContracts": [],
      "isFixedGasLimit": false
    }
  ],
  "receipts": [
    {
      "status": "0x1",
      "cumulativeGasUsed": "0xc288bb",
      "logs": [
        {
          "address": "0x224af5c393f5456e57555951e8a8f32fd27f21c2",
          "topics": [
            "0xf6c58d702978645ce3b9b7448f83dc6e5b3484a4e0ef39633435730d73264ec1",
            "0x00000000000000000000000014d7795a2566cd16eaa1419a26ddb643ce523655"
          ],
          "data": "0x00000000000000000000000000000000000000000000000000000000009896800000000000000000000000000000000000000000000000000000000000000001",
          "blockHash": "0x3c43c8980228b0f65b367da010f40f4947b01c19b32daa043316efb231a834d4",
          "blockNumber": "0x83dc1c",
          "transactionHash": "0x4a2d1a0bf2a03ace08fffec6c18c958f733fc3fb0ebbfe95516d11e46cd680c8",
          "transactionIndex": "0xab",
          "logIndex": "0xbe",
          "removed": false
        }
      ],
      "logsBloom": "0x00000000000000000000000000000000000000000000000000000000000000000000000000000000000000000000000000000000000000000000000000000000000000000000000000000000000000000060000000000000000000000000000000000000000000000000000000000000000000004000000000000000000000000000000000000000000000000000000000000000000000000000000000000000000000000000000000000000000100080002000000000000000000020000000000000000000000000000000000000000000000000000000000000000000000000000000000000081000000000000000000000000000000000000000000000000",
      "type": "0x2",
      "transactionHash": "0x4a2d1a0bf2a03ace08fffec6c18c958f733fc3fb0ebbfe95516d11e46cd680c8",
      "transactionIndex": "0xab",
      "blockHash": "0x3c43c8980228b0f65b367da010f40f4947b01c19b32daa043316efb231a834d4",
      "blockNumber": "0x83dc1c",
      "gasUsed": "0x41a7c",
      "effectiveGasPrice": "0x10849c",
      "from": "0x14d7795a2566cd16eaa1419a26ddb643ce523655",
      "to": "0x224af5c393f5456e57555951e8a8f32fd27f21c2",
      "contractAddress": null
    }
  ],
  "libraries": [],
  "pending": [],
  "returns": {},
  "timestamp": 1751043853,
  "chain": 11155111,
  "commit": "2ffbf59"
}