{
  "transactions": [
    {
      "hash": "0xf5ee72867d78ef10088a3ea8384d7310d4ba124cb60455234be8c71a8a06256e",
      "transactionType": "CALL",
      "contractName": null,
      "contractAddress": "0xf13b57fdaa552d952acdb6a2cd81c3078775c2d3",
      "function": "registerStrategy((uint256,uint8,uint256,(uint64,uint256,(address,uint256)[])[]),uint256)",
      "arguments": [
        "(2, 0, 10000000, [(43113, 10000000, [(0x3cfc9AA161e825F2878Fa8B46AaC72Ae32673FfA, 100)])])",
        "2"
      ],
      "transaction": {
        "from": "0x14d7795a2566cd16eaa1419a26ddb643ce523655",
        "to": "0xf13b57fdaa552d952acdb6a2cd81c3078775c2d3",
        "gas": "0x5ab37",
        "value": "0x0",
        "input": "0x8d450b1c00000000000000000000000000000000000000000000000000000000000000400000000000000000000000000000000000000000000000000000000000000002000000000000000000000000000000000000000000000000000000000000000200000000000000000000000000000000000000000000000000000000000000000000000000000000000000000000000000000000000000000000000000989680000000000000000000000000000000000000000000000000000000000000008000000000000000000000000000000000000000000000000000000000000000010000000000000000000000000000000000000000000000000000000000000020000000000000000000000000000000000000000000000000000000000000a8690000000000000000000000000000000000000000000000000000000000989680000000000000000000000000000000000000000000000000000000000000006000000000000000000000000000000000000000000000000000000000000000010000000000000000000000003cfc9aa161e825f2878fa8b46aac72ae32673ffa0000000000000000000000000000000000000000000000000000000000000064",
        "nonce": "0xa6",
        "chainId": "0xaa36a7"
      },
      "additionalContracts": [],
      "isFixedGasLimit": false
    }
  ],
  "receipts": [
    {
      "status": "0x1",
      "cumulativeGasUsed": "0x84cc8e",
      "logs": [
        {
          "address": "0xf13b57fdaa552d952acdb6a2cd81c3078775c2d3",
          "topics": [
            "0xf6c58d702978645ce3b9b7448f83dc6e5b3484a4e0ef39633435730d73264ec1",
            "0x00000000000000000000000014d7795a2566cd16eaa1419a26ddb643ce523655"
          ],
          "data": "0x00000000000000000000000000000000000000000000000000000000009896800000000000000000000000000000000000000000000000000000000000000002",
          "blockHash": "0x91a82165e599095df67f9741681caf1ed1c7314227666ea585f4313a33e70b65",
          "blockNumber": "0x83e2a1",
          "transactionHash": "0xf5ee72867d78ef10088a3ea8384d7310d4ba124cb60455234be8c71a8a06256e",
          "transactionIndex": "0x6b",
          "logIndex": "0x8c",
          "removed": false
        }
      ],
      "logsBloom": "0x00000000000000000000000000000000000000000000000000100000000000000000000000000000000000000000000000000000000000000000000000000000000000000000000000000000000000000040000000000000000000000000000000000000000000000000000000000000000000004000000000000000000000000000000000000000000000000000000000000000000000000000000000000000000000000000008000000000000100080000000000000000000000020000000000000000000000000000000000000000000000000000000000000000000000000000000100000001000000000000000000000000000000000000000000000000",
      "type": "0x2",
      "transactionHash": "0xf5ee72867d78ef10088a3ea8384d7310d4ba124cb60455234be8c71a8a06256e",
      "transactionIndex": "0x6b",
      "blockHash": "0x91a82165e599095df67f9741681caf1ed1c7314227666ea585f4313a33e70b65",
      "blockNumber": "0x83e2a1",
      "gasUsed": "0x41aa8",
      "effectiveGasPrice": "0xf463c",
      "from": "0x14d7795a2566cd16eaa1419a26ddb643ce523655",
      "to": "0xf13b57fdaa552d952acdb6a2cd81c3078775c2d3",
      "contractAddress": null
    }
  ],
  "libraries": [],
  "pending": [],
  "returns": {},
  "timestamp": 1751063893,
  "chain": 11155111,
  "commit": "2ffbf59"
}