{
  "transactions": [
    {
      "hash": "0x5111a43f2c0231e88ed8f4b05c0c99b5e3b824b11040c7710a0a2f7f23fcff12",
      "transactionType": "CALL",
      "contractName": null,
      "contractAddress": "0x224af5c393f5456e57555951e8a8f32fd27f21c2",
      "function": "registerStrategy((uint256,uint8,uint256,(uint64,uint256,(address,uint256)[])[]),uint256)",
      "arguments": [
        "(0, 0, 10000000, [(43113, 10000000, [(0x3cfc9AA161e825F2878Fa8B46AaC72Ae32673FfA, 100)])])",
        "0"
      ],
      "transaction": {
        "from": "0x14d7795a2566cd16eaa1419a26ddb643ce523655",
        "to": "0x224af5c393f5456e57555951e8a8f32fd27f21c2",
        "gas": "0x5b68f",
        "value": "0x0",
        "input": "0x8d450b1c00000000000000000000000000000000000000000000000000000000000000400000000000000000000000000000000000000000000000000000000000000000000000000000000000000000000000000000000000000000000000000000000000000000000000000000000000000000000000000000000000000000000000000000000000000000000000000000000000000000000000000000000000989680000000000000000000000000000000000000000000000000000000000000008000000000000000000000000000000000000000000000000000000000000000010000000000000000000000000000000000000000000000000000000000000020000000000000000000000000000000000000000000000000000000000000a8690000000000000000000000000000000000000000000000000000000000989680000000000000000000000000000000000000000000000000000000000000006000000000000000000000000000000000000000000000000000000000000000010000000000000000000000003cfc9aa161e825f2878fa8b46aac72ae32673ffa0000000000000000000000000000000000000000000000000000000000000064",
        "nonce": "0x16",
        "chainId": "0xaa36a7"
      },
      "additionalContracts": [],
      "isFixedGasLimit": false
    }
  ],
  "receipts": [
    {
      "status": "0x1",
      "cumulativeGasUsed": "0xa443e1",
      "logs": [
        {
          "address": "0x224af5c393f5456e57555951e8a8f32fd27f21c2",
          "topics": [
            "0xf6c58d702978645ce3b9b7448f83dc6e5b3484a4e0ef39633435730d73264ec1",
            "0x00000000000000000000000014d7795a2566cd16eaa1419a26ddb643ce523655"
          ],
          "data": "0x00000000000000000000000000000000000000000000000000000000009896800000000000000000000000000000000000000000000000000000000000000000",
          "blockHash": "0x44d80fa9029af25baef55e74f67c6dfdeaef6908b0ababeae572681fcfd34ae3",
          "blockNumber": "0x836b9a",
          "transactionHash": "0x5111a43f2c0231e88ed8f4b05c0c99b5e3b824b11040c7710a0a2f7f23fcff12",
          "transactionIndex": "0x84",
          "logIndex": "0x80",
          "removed": false
        }
      ],
      "logsBloom": "0x00000000000000000000000000000000000000000000000000000000000000000000000000000000000000000000000000000000000000000000000000000000000000000000000000000000000000000060000000000000000000000000000000000000000000000000000000000000000000004000000000000000000000000000000000000000000000000000000000000000000000000000000000000000000000000000000000000000000100080002000000000000000000020000000000000000000000000000000000000000000000000000000000000000000000000000000000000081000000000000000000000000000000000000000000000000",
      "type": "0x2",
      "transactionHash": "0x5111a43f2c0231e88ed8f4b05c0c99b5e3b824b11040c7710a0a2f7f23fcff12",
      "transactionIndex": "0x84",
      "blockHash": "0x44d80fa9029af25baef55e74f67c6dfdeaef6908b0ababeae572681fcfd34ae3",
      "blockNumber": "0x836b9a",
      "gasUsed": "0x3e80b",
      "effectiveGasPrice": "0x98e8834",
      "from": "0x14d7795a2566cd16eaa1419a26ddb643ce523655",
      "to": "0x224af5c393f5456e57555951e8a8f32fd27f21c2",
      "contractAddress": null
    }
  ],
  "libraries": [],
  "pending": [],
  "returns": {},
  "timestamp": 1750695998,
  "chain": 11155111,
  "commit": "df59fe2"
}