{
  "transactions": [
    {
      "hash": "0xb8cde8e32e96b6cf5b625ae3f9efe5d735c3407360e480260d034d48056151ed",
      "transactionType": "CALL",
      "contractName": null,
      "contractAddress": "0xf13b57fdaa552d952acdb6a2cd81c3078775c2d3",
      "function": "registerStrategy((uint256,uint8,uint256,(uint64,uint256,(address,uint256)[])[]),uint256)",
      "arguments": [
        "(1, 0, 10000000, [(43113, 10000000, [(0x3cfc9AA161e825F2878Fa8B46AaC72Ae32673FfA, 100)])])",
        "1"
      ],
      "transaction": {
        "from": "0x14d7795a2566cd16eaa1419a26ddb643ce523655",
        "to": "0xf13b57fdaa552d952acdb6a2cd81c3078775c2d3",
        "gas": "0x6077b",
        "value": "0x0",
        "input": "0x8d450b1c00000000000000000000000000000000000000000000000000000000000000400000000000000000000000000000000000000000000000000000000000000001000000000000000000000000000000000000000000000000000000000000000100000000000000000000000000000000000000000000000000000000000000000000000000000000000000000000000000000000000000000000000000989680000000000000000000000000000000000000000000000000000000000000008000000000000000000000000000000000000000000000000000000000000000010000000000000000000000000000000000000000000000000000000000000020000000000000000000000000000000000000000000000000000000000000a8690000000000000000000000000000000000000000000000000000000000989680000000000000000000000000000000000000000000000000000000000000006000000000000000000000000000000000000000000000000000000000000000010000000000000000000000003cfc9aa161e825f2878fa8b46aac72ae32673ffa0000000000000000000000000000000000000000000000000000000000000064",
        "nonce": "0xa1",
        "chainId": "0xaa36a7"
      },
      "additionalContracts": [],
      "isFixedGasLimit": false
    }
  ],
  "receipts": [
    {
      "status": "0x1",
      "cumulativeGasUsed": "0x11c2410",
      "logs": [
        {
          "address": "0xf13b57fdaa552d952acdb6a2cd81c3078775c2d3",
          "topics": [
            "0xf6c58d702978645ce3b9b7448f83dc6e5b3484a4e0ef39633435730d73264ec1",
            "0x00000000000000000000000014d7795a2566cd16eaa1419a26ddb643ce523655"
          ],
          "data": "0x00000000000000000000000000000000000000000000000000000000009896800000000000000000000000000000000000000000000000000000000000000001",
          "blockHash": "0x0ee3bf0e6d328464f847310885dd2118a299a63a06d8f2c55f48d708111f5c9b",
          "blockNumber": "0x83dcf0",
          "transactionHash": "0xb8cde8e32e96b6cf5b625ae3f9efe5d735c3407360e480260d034d48056151ed",
          "transactionIndex": "0xbb",
          "logIndex": "0x101",
          "removed": false
        }
      ],
      "logsBloom": "0x00000000000000000000000000000000000000000000000000100000000000000000000000000000000000000000000000000000000000000000000000000000000000000000000000000000000000000040000000000000000000000000000000000000000000000000000000000000000000004000000000000000000000000000000000000000000000000000000000000000000000000000000000000000000000000000008000000000000100080000000000000000000000020000000000000000000000000000000000000000000000000000000000000000000000000000000100000001000000000000000000000000000000000000000000000000",
      "type": "0x2",
      "transactionHash": "0xb8cde8e32e96b6cf5b625ae3f9efe5d735c3407360e480260d034d48056151ed",
      "transactionIndex": "0xbb",
      "blockHash": "0x0ee3bf0e6d328464f847310885dd2118a299a63a06d8f2c55f48d708111f5c9b",
      "blockNumber": "0x83dcf0",
      "gasUsed": "0x45d74",
      "effectiveGasPrice": "0x1094e3",
      "from": "0x14d7795a2566cd16eaa1419a26ddb643ce523655",
      "to": "0xf13b57fdaa552d952acdb6a2cd81c3078775c2d3",
      "contractAddress": null
    }
  ],
  "libraries": [],
  "pending": [],
  "returns": {},
  "timestamp": 1751046398,
  "chain": 11155111,
  "commit": "2ffbf59"
}