{
  "transactions": [
    {
      "hash": "0xd6c6978648a96828650cd241491fb4ceac9ccf50630ee8f25368b539bfa80234",
      "transactionType": "CALL",
      "contractName": null,
      "contractAddress": "0x224af5c393f5456e57555951e8a8f32fd27f21c2",
      "function": "registerStrategy((uint256,uint8,uint256,(uint64,uint256,(address,uint256)[])[]),uint256)",
      "arguments": [
        "(0, 0, 10000000, [(43113, 10000000, [(0x3cfc9AA161e825F2878Fa8B46AaC72Ae32673FfA, 100)])])",
        "0"
      ],
      "transaction": {
        "from": "0x14d7795a2566cd16eaa1419a26ddb643ce523655",
        "to": "0x224af5c393f5456e57555951e8a8f32fd27f21c2",
        "gas": "0x5090a",
        "value": "0x0",
        "input": "0x8d450b1c00000000000000000000000000000000000000000000000000000000000000400000000000000000000000000000000000000000000000000000000000000000000000000000000000000000000000000000000000000000000000000000000000000000000000000000000000000000000000000000000000000000000000000000000000000000000000000000000000000000000000000000000000989680000000000000000000000000000000000000000000000000000000000000008000000000000000000000000000000000000000000000000000000000000000010000000000000000000000000000000000000000000000000000000000000020000000000000000000000000000000000000000000000000000000000000a8690000000000000000000000000000000000000000000000000000000000989680000000000000000000000000000000000000000000000000000000000000006000000000000000000000000000000000000000000000000000000000000000010000000000000000000000003cfc9aa161e825f2878fa8b46aac72ae32673ffa0000000000000000000000000000000000000000000000000000000000000064",
        "nonce": "0x42",
        "chainId": "0xaa36a7"
      },
      "additionalContracts": [],
      "isFixedGasLimit": false
    }
  ],
  "receipts": [
    {
      "status": "0x1",
      "cumulativeGasUsed": "0x1dd9b7b",
      "logs": [
        {
          "address": "0x224af5c393f5456e57555951e8a8f32fd27f21c2",
          "topics": [
            "0xf6c58d702978645ce3b9b7448f83dc6e5b3484a4e0ef39633435730d73264ec1",
            "0x00000000000000000000000014d7795a2566cd16eaa1419a26ddb643ce523655"
          ],
          "data": "0x00000000000000000000000000000000000000000000000000000000009896800000000000000000000000000000000000000000000000000000000000000000",
          "blockHash": "0x91d630afa78c10ea0af8651283bbabff8cf7bbf950234c5cdef95447b9a6230b",
          "blockNumber": "0x837ce5",
          "transactionHash": "0xd6c6978648a96828650cd241491fb4ceac9ccf50630ee8f25368b539bfa80234",
          "transactionIndex": "0xa3",
          "logIndex": "0x100",
          "removed": false
        }
      ],
      "logsBloom": "0x00000000000000000000000000000000000000000000000000000000000000000000000000000000000000000000000000000000000000000000000000000000000000000000000000000000000000000060000000000000000000000000000000000000000000000000000000000000000000004000000000000000000000000000000000000000000000000000000000000000000000000000000000000000000000000000000000000000000100080002000000000000000000020000000000000000000000000000000000000000000000000000000000000000000000000000000000000081000000000000000000000000000000000000000000000000",
      "type": "0x2",
      "transactionHash": "0xd6c6978648a96828650cd241491fb4ceac9ccf50630ee8f25368b539bfa80234",
      "transactionIndex": "0xa3",
      "blockHash": "0x91d630afa78c10ea0af8651283bbabff8cf7bbf950234c5cdef95447b9a6230b",
      "blockNumber": "0x837ce5",
      "gasUsed": "0x3a53f",
      "effectiveGasPrice": "0x30267b",
      "from": "0x14d7795a2566cd16eaa1419a26ddb643ce523655",
      "to": "0x224af5c393f5456e57555951e8a8f32fd27f21c2",
      "contractAddress": null
    }
  ],
  "libraries": [],
  "pending": [],
  "returns": {},
  "timestamp": 1750749193,
  "chain": 11155111,
  "commit": "2bca086"
}