{
  "transactions": [
    {
      "hash": "0x00212aa64df63e07bc2afca31c3a1182028431198c76cb5bb0db9e647f5852ea",
      "transactionType": "CALL",
      "contractName": null,
      "contractAddress": "0xf13b57fdaa552d952acdb6a2cd81c3078775c2d3",
      "function": "addSupportedChainId(uint64,address)",
      "arguments": [
        "43113",
        "0x8c10cce8Ad744B6620c8b1300C3cbf6f5CD835eC"
      ],
      "transaction": {
        "from": "0x14d7795a2566cd16eaa1419a26ddb643ce523655",
        "to": "0xf13b57fdaa552d952acdb6a2cd81c3078775c2d3",
        "gas": "0xfd9d",
        "value": "0x0",
        "input": "0xf8d7e75a000000000000000000000000000000000000000000000000000000000000a8690000000000000000000000008c10cce8ad744b6620c8b1300c3cbf6f5cd835ec",
        "nonce": "0x9d",
        "chainId": "0xaa36a7"
      },
      "additionalContracts": [],
      "isFixedGasLimit": false
    },
    {
      "hash": "0x3983820230cbb342ccc16efd614cb788fe3f6cca39ac78f9c30371d77c758a88",
      "transactionType": "CALL",
      "contractName": null,
      "contractAddress": "0xf13b57fdaa552d952acdb6a2cd81c3078775c2d3",
      "function": "addProtocol(uint64,string,address)",
      "arguments": [
        "43113",
        "AaveV3",
        "0x3cfc9AA161e825F2878Fa8B46AaC72Ae32673FfA"
      ],
      "transaction": {
        "from": "0x14d7795a2566cd16eaa1419a26ddb643ce523655",
        "to": "0xf13b57fdaa552d952acdb6a2cd81c3078775c2d3",
        "gas": "0x1fef4",
        "value": "0x0",
        "input": "0xd2732619000000000000000000000000000000000000000000000000000000000000a86900000000000000000000000000000000000000000000000000000000000000600000000000000000000000003cfc9aa161e825f2878fa8b46aac72ae32673ffa00000000000000000000000000000000000000000000000000000000000000064161766556330000000000000000000000000000000000000000000000000000",
        "nonce": "0x9e",
        "chainId": "0xaa36a7"
      },
      "additionalContracts": [],
      "isFixedGasLimit": false
    }
  ],
  "receipts": [
    {
      "status": "0x1",
      "cumulativeGasUsed": "0x1d65e82",
      "logs": [],
      "logsBloom": "0x00000000000000000000000000000000000000000000000000000000000000000000000000000000000000000000000000000000000000000000000000000000000000000000000000000000000000000000000000000000000000000000000000000000000000000000000000000000000000000000000000000000000000000000000000000000000000000000000000000000000000000000000000000000000000000000000000000000000000000000000000000000000000000000000000000000000000000000000000000000000000000000000000000000000000000000000000000000000000000000000000000000000000000000000000000000",
      "type": "0x2",
      "transactionHash": "0x00212aa64df63e07bc2afca31c3a1182028431198c76cb5bb0db9e647f5852ea",
      "transactionIndex": "0x54",
      "blockHash": "0x48fa0dcba741b69ed1055214bb17d63e2cc67f28fb84eac83734e845fa5378a6",
      "blockNumber": "0x83dc7e",
      "gasUsed": "0xb79e",
      "effectiveGasPrice": "0x2fd422a",
      "from": "0x14d7795a2566cd16eaa1419a26ddb643ce523655",
      "to": "0xf13b57fdaa552d952acdb6a2cd81c3078775c2d3",
      "contractAddress": null
    },
    {
      "status": "0x1",
      "cumulativeGasUsed": "0x1d7d06f",
      "logs": [],
      "logsBloom": "0x00000000000000000000000000000000000000000000000000000000000000000000000000000000000000000000000000000000000000000000000000000000000000000000000000000000000000000000000000000000000000000000000000000000000000000000000000000000000000000000000000000000000000000000000000000000000000000000000000000000000000000000000000000000000000000000000000000000000000000000000000000000000000000000000000000000000000000000000000000000000000000000000000000000000000000000000000000000000000000000000000000000000000000000000000000000",
      "type": "0x2",
      "transactionHash": "0x3983820230cbb342ccc16efd614cb788fe3f6cca39ac78f9c30371d77c758a88",
      "transactionIndex": "0x55",
      "blockHash": "0x48fa0dcba741b69ed1055214bb17d63e2cc67f28fb84eac83734e845fa5378a6",
      "blockNumber": "0x83dc7e",
      "gasUsed": "0x171ed",
      "effectiveGasPrice": "0x2fd422a",
      "from": "0x14d7795a2566cd16eaa1419a26ddb643ce523655",
      "to": "0xf13b57fdaa552d952acdb6a2cd81c3078775c2d3",
      "contractAddress": null
    }
  ],
  "libraries": [],
  "pending": [],
  "returns": {},
  "timestamp": 1751045029,
  "chain": 11155111,
  "commit": "2ffbf59"
}