{
  "transactions": [
    {
      "hash": "0x1683c5ae426942620ab10a1c7a296d42a96738ca295630491a607fbe8f67a663",
      "transactionType": "CALL",
      "contractName": null,
      "contractAddress": "0x436b630550186555865f969b89803a76d18fab2b",
      "function": "removeSupportedChainId(uint64)",
      "arguments": [
        "12532609583862916517"
      ],
      "transaction": {
        "from": "0x14d7795a2566cd16eaa1419a26ddb643ce523655",
        "to": "0x436b630550186555865f969b89803a76d18fab2b",
        "gas": "0x8120",
        "value": "0x0",
        "input": "0x08618de0000000000000000000000000000000000000000000000000adecc60412ce25a5",
        "nonce": "0xae",
        "chainId": "0xaa36a7"
      },
      "additionalContracts": [],
      "isFixedGasLimit": false
    },
    {
      "hash": "0x8ee32b25ac90ecc48383aa043388ad40e3a1d840f5c79540a208dae2bb4d7db5",
      "transactionType": "CALL",
      "contractName": null,
      "contractAddress": "0x436b630550186555865f969b89803a76d18fab2b",
      "function": "addSupportedChainId(uint64,address)",
      "arguments": [
        "12532609583862916517",
        "0xbb6868A91dE8a56565B0a290fb04648a8750d657"
      ],
      "transaction": {
        "from": "0x14d7795a2566cd16eaa1419a26ddb643ce523655",
        "to": "0x436b630550186555865f969b89803a76d18fab2b",
        "gas": "0xfe02",
        "value": "0x0",
        "input": "0xf8d7e75a000000000000000000000000000000000000000000000000adecc60412ce25a5000000000000000000000000bb6868a91de8a56565b0a290fb04648a8750d657",
        "nonce": "0xaf",
        "chainId": "0xaa36a7"
      },
      "additionalContracts": [],
      "isFixedGasLimit": false
    }
  ],
  "receipts": [
    {
      "status": "0x1",
      "cumulativeGasUsed": "0xc1ebc6",
      "logs": [],
      "logsBloom": "0x00000000000000000000000000000000000000000000000000000000000000000000000000000000000000000000000000000000000000000000000000000000000000000000000000000000000000000000000000000000000000000000000000000000000000000000000000000000000000000000000000000000000000000000000000000000000000000000000000000000000000000000000000000000000000000000000000000000000000000000000000000000000000000000000000000000000000000000000000000000000000000000000000000000000000000000000000000000000000000000000000000000000000000000000000000000",
      "type": "0x0",
      "transactionHash": "0x1683c5ae426942620ab10a1c7a296d42a96738ca295630491a607fbe8f67a663",
      "transactionIndex": "0x8b",
      "blockHash": "0x201c08f6bedf15fbc375995c6e4bf7f8b013d8e2a63890ac00815a6c25ef64c9",
      "blockNumber": "0x83e402",
      "gasUsed": "0x5d7d",
      "effectiveGasPrice": "0xf424d",
      "from": "0x14d7795a2566cd16eaa1419a26ddb643ce523655",
      "to": "0x436b630550186555865f969b89803a76d18fab2b",
      "contractAddress": null
    },
    {
      "status": "0x1",
      "cumulativeGasUsed": "0xc2a3ac",
      "logs": [],
      "logsBloom": "0x00000000000000000000000000000000000000000000000000000000000000000000000000000000000000000000000000000000000000000000000000000000000000000000000000000000000000000000000000000000000000000000000000000000000000000000000000000000000000000000000000000000000000000000000000000000000000000000000000000000000000000000000000000000000000000000000000000000000000000000000000000000000000000000000000000000000000000000000000000000000000000000000000000000000000000000000000000000000000000000000000000000000000000000000000000000",
      "type": "0x0",
      "transactionHash": "0x8ee32b25ac90ecc48383aa043388ad40e3a1d840f5c79540a208dae2bb4d7db5",
      "transactionIndex": "0x8c",
      "blockHash": "0x201c08f6bedf15fbc375995c6e4bf7f8b013d8e2a63890ac00815a6c25ef64c9",
      "blockNumber": "0x83e402",
      "gasUsed": "0xb7e6",
      "effectiveGasPrice": "0xf424d",
      "from": "0x14d7795a2566cd16eaa1419a26ddb643ce523655",
      "to": "0x436b630550186555865f969b89803a76d18fab2b",
      "contractAddress": null
    }
  ],
  "libraries": [],
  "pending": [],
  "returns": {},
  "timestamp": 1751068129,
  "chain": 11155111,
  "commit": "2ffbf59"
}