{
  "transactions": [
    {
      "hash": "0x9fbe6dbdfc6d1f8acdf7086dd507ecb82ba5a39c4d56ea0722225eaba9042e52",
      "transactionType": "CALL",
      "contractName": null,
      "contractAddress": "0x1c7d4b196cb0c7b01d743fbc6116a902379c7238",
      "function": "approve(address,uint256)",
      "arguments": [
        "0xfA205DB4D93006837C0CAb69095bBB7d601c82E6",
        "10000000"
      ],
      "transaction": {
        "from": "0x14d7795a2566cd16eaa1419a26ddb643ce523655",
        "to": "0x1c7d4b196cb0c7b01d743fbc6116a902379c7238",
        "gas": "0x12b1b",
        "value": "0x0",
        "input": "0x095ea7b3000000000000000000000000fa205db4d93006837c0cab69095bbb7d601c82e60000000000000000000000000000000000000000000000000000000000989680",
        "nonce": "0xb2",
        "chainId": "0xaa36a7"
      },
      "additionalContracts": [],
      "isFixedGasLimit": false
    },
    {
      "hash": "0xca98e8fbf965c803b1148da6460443b6ba10b16c229c4ad3759b7457bbc81d60",
      "transactionType": "CALL",
      "contractName": null,
      "contractAddress": "0xfa205db4d93006837c0cab69095bbb7d601c82e6",
      "function": "deposit(uint256,uint8)",
      "arguments": [
        "10000000",
        "1"
      ],
      "transaction": {
        "from": "0x14d7795a2566cd16eaa1419a26ddb643ce523655",
        "to": "0xfa205db4d93006837c0cab69095bbb7d601c82e6",
        "gas": "0x22c0f",
        "value": "0x0",
        "input": "0x654cfdff00000000000000000000000000000000000000000000000000000000009896800000000000000000000000000000000000000000000000000000000000000001",
        "nonce": "0xb3",
        "chainId": "0xaa36a7"
      },
      "additionalContracts": [],
      "isFixedGasLimit": false
    }
  ],
  "receipts": [
    {
      "status": "0x1",
      "cumulativeGasUsed": "0x769be2",
      "logs": [
        {
          "address": "0x1c7d4b196cb0c7b01d743fbc6116a902379c7238",
          "topics": [
            "0x8c5be1e5ebec7d5bd14f71427d1e84f3dd0314c0f7b2291e5b200ac8c7c3b925",
            "0x00000000000000000000000014d7795a2566cd16eaa1419a26ddb643ce523655",
            "0x000000000000000000000000fa205db4d93006837c0cab69095bbb7d601c82e6"
          ],
          "data": "0x0000000000000000000000000000000000000000000000000000000000989680",
          "blockHash": "0xc90572f07b8dd89a6a9dd4ef7052c3009b5752940cebfa4ed7727ff1de6ef5fb",
          "blockNumber": "0x83e462",
          "transactionHash": "0x9fbe6dbdfc6d1f8acdf7086dd507ecb82ba5a39c4d56ea0722225eaba9042e52",
          "transactionIndex": "0x69",
          "logIndex": "0x91",
          "removed": false
        }
      ],
      "logsBloom": "0x00000000000000000000000000000000000000000000000000000000000200000000000000000000000000000000000000000000000000000000000000200000000000000000000000000000000000000000000000000000000000000000000000000000000000000000000000000000000000004080000000000000000000000000000000100000000000000000000000000000000000000000000000000000020000000000010000000000000100080000000000000000000000000000000000000000000200000000000000000000000000000000000000000000000000000010000000000000000010000000000000000000000000000000000000000000",
      "type": "0x0",
      "transactionHash": "0x9fbe6dbdfc6d1f8acdf7086dd507ecb82ba5a39c4d56ea0722225eaba9042e52",
      "transactionIndex": "0x69",
      "blockHash": "0xc90572f07b8dd89a6a9dd4ef7052c3009b5752940cebfa4ed7727ff1de6ef5fb",
      "blockNumber": "0x83e462",
      "gasUsed": "0xd88d",
      "effectiveGasPrice": "0xf4251",
      "from": "0x14d7795a2566cd16eaa1419a26ddb643ce523655",
      "to": "0x1c7d4b196cb0c7b01d743fbc6116a902379c7238",
      "contractAddress": null
    },
    {
      "status": "0x1",
      "cumulativeGasUsed": "0x782e76",
      "logs": [
        {
          "address": "0x1c7d4b196cb0c7b01d743fbc6116a902379c7238",
          "topics": [
            "0xddf252ad1be2c89b69c2b068fc378daa952ba7f163c4a11628f55a4df523b3ef",
            "0x00000000000000000000000014d7795a2566cd16eaa1419a26ddb643ce523655",
            "0x000000000000000000000000fa205db4d93006837c0cab69095bbb7d601c82e6"
          ],
          "data": "0x0000000000000000000000000000000000000000000000000000000000989680",
          "blockHash": "0xc90572f07b8dd89a6a9dd4ef7052c3009b5752940cebfa4ed7727ff1de6ef5fb",
          "blockNumber": "0x83e462",
          "transactionHash": "0xca98e8fbf965c803b1148da6460443b6ba10b16c229c4ad3759b7457bbc81d60",
          "transactionIndex": "0x6a",
          "logIndex": "0x92",
          "removed": false
        },
        {
          "address": "0xfa205db4d93006837c0cab69095bbb7d601c82e6",
          "topics": [
            "0xe1fffcc4923d04b559f4d29a8bfc6cda04eb5b0d3c460751c2402c5c5cc9109c",
            "0x00000000000000000000000014d7795a2566cd16eaa1419a26ddb643ce523655"
          ],
          "data": "0x0000000000000000000000000000000000000000000000000000000000989680",
          "blockHash": "0xc90572f07b8dd89a6a9dd4ef7052c3009b5752940cebfa4ed7727ff1de6ef5fb",
          "blockNumber": "0x83e462",
          "transactionHash": "0xca98e8fbf965c803b1148da6460443b6ba10b16c229c4ad3759b7457bbc81d60",
          "transactionIndex": "0x6a",
          "logIndex": "0x93",
          "removed": false
        }
      ],
      "logsBloom": "0x00000000000000000000000000000000000000000000000000000000000200000000000000000000000000000000400000000000000000000000000000000000000000000000000000000008000000000000000000000000000000008000000000000000000000000000000000000000000000004080000000000010000000000000000000100000000000000000000000000001000000000000000000000000000000000000010004000000000100080000000000000000000000000000000000000002000200000000000000000000000000000000000000000000000000000000040000000000000010000000000000000000000000400000000000000000",
      "type": "0x0",
      "transactionHash": "0xca98e8fbf965c803b1148da6460443b6ba10b16c229c4ad3759b7457bbc81d60",
      "transactionIndex": "0x6a",
      "blockHash": "0xc90572f07b8dd89a6a9dd4ef7052c3009b5752940cebfa4ed7727ff1de6ef5fb",
      "blockNumber": "0x83e462",
      "gasUsed": "0x19294",
      "effectiveGasPrice": "0xf4251",
      "from": "0x14d7795a2566cd16eaa1419a26ddb643ce523655",
      "to": "0xfa205db4d93006837c0cab69095bbb7d601c82e6",
      "contractAddress": null
    }
  ],
  "libraries": [],
  "pending": [],
  "returns": {},
  "timestamp": 1751069280,
  "chain": 11155111,
  "commit": "2ffbf59"
}