{
  "transactions": [
    {
      "hash": "0x9949cdaafa678981b25dae016f268545fee848928fe50245337bf89a43bd0588",
      "transactionType": "CALL",
      "contractName": null,
      "contractAddress": "0xe8b44ac3f920156846a79ec2a74d770ce395dfe1",
      "function": "triggerRebalance(address,uint256)",
      "arguments": [
        "0x0000000000000000000000000000000000000000",
        "0"
      ],
      "transaction": {
        "from": "0x14d7795a2566cd16eaa1419a26ddb643ce523655",
        "to": "0xe8b44ac3f920156846a79ec2a74d770ce395dfe1",
        "gas": "0x8b26",
        "value": "0x0",
        "input": "0xa994489500000000000000000000000000000000000000000000000000000000000000000000000000000000000000000000000000000000000000000000000000000000",
        "nonce": "0x5",
        "chainId": "0xa869"
      },
      "additionalContracts": [],
      "isFixedGasLimit": false
    }
  ],
  "receipts": [
    {
      "status": "0x1",
      "cumulativeGasUsed": "0x11920",
      "logs": [
        {
          "address": "0xe8b44ac3f920156846a79ec2a74d770ce395dfe1",
          "topics": [
            "0x624c63e3e38424ed4c807f9a74ffa042b3ab002af2b49960f2432a554ae2e4d5",
            "0x0000000000000000000000000000000000000000000000000000000000000000"
          ],
          "data": "0x0000000000000000000000000000000000000000000000000000000000000000",
          "blockHash": "0x9bd96dce3ea62c38893479957cb63439f6f664f24da14a96bb231cb605b8c9a8",
          "blockNumber": "0x27c56fb",
          "transactionHash": "0x9949cdaafa678981b25dae016f268545fee848928fe50245337bf89a43bd0588",
          "transactionIndex": "0x1",
          "logIndex": "0x1",
          "removed": false
        }
      ],
      "logsBloom": "0x00000000000000000000000000000000000000000000000008000000000000000000000000000008000000000000000000400000000000000000000000000020000000000000000000000000000000000000000000000000000000000000000000000000020000000000000000000800000000002000000000000000000000000000000000000000000000000000000000001000000000000000000000000000000000000000000000000000000000000000000000000000000000000000000000000000000000000000000000000000000000000000000000000000000020000000000000000000000000000000000000000000000000000000000000000000",
      "type": "0x2",
      "transactionHash": "0x9949cdaafa678981b25dae016f268545fee848928fe50245337bf89a43bd0588",
      "transactionIndex": "0x1",
      "blockHash": "0x9bd96dce3ea62c38893479957cb63439f6f664f24da14a96bb231cb605b8c9a8",
      "blockNumber": "0x27c56fb",
      "gasUsed": "0x64bf",
      "effectiveGasPrice": "0x2",
      "from": "0x14d7795a2566cd16eaa1419a26ddb643ce523655",
      "to": "0xe8b44ac3f920156846a79ec2a74d770ce395dfe1",
      "contractAddress": null
    }
  ],
  "libraries": [],
  "pending": [],
  "returns": {},
  "timestamp": 1749813148,
  "chain": 43113,
  "commit": "04df9b9"
}